:020000040800F2
:100000008836002045010008E7210008B1190008E2
:10001000C12100088D130008A53800080000000069
:10002000000000000000000000000000B3280008ED
:10003000B11500080000000067250008DD2A00084F
:100040005F0100085F0100085F0100085F01000810
:100050005F0100085F0100085F0100085F01000800
:100060005F0100085F0100085F0100085F010008F0
:100070005F0100085F0100085F0100085F010008E0
:100080005F0100085F0100085F0100085F010008D0
:100090005F0100085F0100085F0100085F010008C0
:1000A0005F0100085F0100085F0100085F010008B0
:1000B000B92B0008A12F00080D3000085F010008CF
:1000C0005F0100085F0100085F0100085F01000890
:1000D0005F0100085F010008E93500085F010008C2
:1000E0005F0100085F0100085F0100085F01000870
:1000F0005F0100085F0100085F0100085F01000860
:100100005F0100085F010008153100085F01000869
:100110005F0100085F0100085F0100085F0100083F
:100120005F0100085F0100085F0100085F0100082F
:10013000DFF80CD000F078FD00480047B94B00080C
:10014000883600200648804706480047FEE7FEE75D
:10015000FEE7FEE7FEE7FEE7FEE7FEE7FEE7FEE777
:10016000E12A00083101000840EA01039B0703D09F
:1001700009E008C9121F08C0042AFAD203E011F8E6
:10018000013B00F8013B521EF9D27047D2B201E0A8
:1001900000F8012B491EFBD270470022F6E710B58C
:1001A00013460A4604461946FFF7F0FF204610BDE5
:1001B00030B505462A460B4612F8010B13F8014BE1
:1001C00008B1A042F8D01CB1002802D06D1CF1E7A4
:1001D000284630BD421C10F8011B0029FBD1801AB3
:1001E000704730B504460020034600E05B1C934294
:1001F00003D2E05CCD5C401BF8D030BD70B50F4D34
:1002000000B92868002412E00A4602E09E4203D0AA
:10021000521C1378002BF9D1DAB2224305D02BB14E
:1002200024B1002100F8011B04E00446401C0678BC
:10023000002EE9D12860204670BD0000DC000020BF
:100240000FB400B58DB010A909900B9000914FF03C
:10025000FF300A9000200C90054806900548079052
:100260006A4609A80F9900F0B5FB0DB05DF814FBC4
:10027000F10900080F0A00082DE9FF5F1D464FF045
:10028000FF3BD5E9014691465F464FF00008A9695A
:100290007F1C01988847296A824688470028F6D142
:1002A000BAF1FF3F0CD024F4C064002E19DD6006C3
:1002B00014D5BAF12B0F09D0BAF12D0F0ED103E0EE
:1002C000584604B0BDE8F09F44F48064A9697F1CDF
:1002D00001988847761E8246002E02DDBAF1300F63
:1002E00003D0B9F1000F26D032E0A969761E44F49C
:1002F00000747F1C019888478246002E05DDBAF104
:10030000780F06D0BAF1580F03D0B9F1000F10D012
:100310001EE0B9F1000F02D0B9F1100F18D1A96990
:10032000761E24F400747F1C0198884782461020B2
:1003300002E0082000E00A20814609E008FB0908E5
:10034000A969761E44F400747F1C01988847824690
:10035000002E05DD4946504600F027FB0028EDDA67
:10036000E96901988847A00502D46FF00100A8E769
:10037000E00725D1600613D5600502D5C8F100005D
:1003800000E0404629680A1D2A600968220501D557
:10039000087015E0220701D5088011E008600FE021
:1003A0002868011D29600068210502D580F80080B9
:1003B00006E0210702D5A0F8008001E0C0F8008027
:1003C00038467EE770B5064603F0A2FE046805468F
:1003D0000A220021304600F02BFB2C6070BDF0B4E7
:1003E00080EA0102D40F4200B2EB410F02D2024672
:1003F000084611464A0042D0C30DDDB2C1F3C752D0
:10040000AD1A202D35DAC1F3160141F4000204B112
:100410005242C5F1200602FA06F12A411044B3EB1C
:10042000D05F23D0C4B1012DA0EBC35009DCF0BCD8
:100430004FF0004202EAC352DBB200F5000000F0C8
:1004400038BB400000F1807000EBC350A0F1807019
:1004500040EAD170490009E0490841EAC071A0EBC7
:10046000C35000F50000400800EBC350F0BC00F0A2
:1004700017BB6142012202EB4101001BF6E7F0BC11
:10048000704781F00041AAE780F00040A7E780EACA
:10049000010210B502F00043400022D04A001FD0F4
:1004A000010E01EB1261C0F35600C2F3560240F494
:1004B000000042F40002A0FB022000047F39140473
:1004C00000D0401C50EA124001D44000491EC2B284
:1004D0000C0604EBD010401C4008802A02D003E038
:1004E000002010BD20F00100002900DA0020184390
:1004F00010BD30B480EA010202F0004530F0004245
:1005000021F0004013D090B1C30DD40DC2F31601F9
:10051000C0F31600E41A41F4000140F400027D34F7
:10052000914201D3641C00E04900002C02DA30BC87
:10053000002070474FF400000023914201D3891A34
:10054000034340084FEA4101F7D151B1914202D132
:100550004FF0004105E002D24FF0010101E06FF0E1
:10056000010103EBC450284430BC00F099BA2DE9D6
:10057000FE4F804681EA0300C00F0C46009021F038
:10058000004123F00045B8EB0200A94105D24046E6
:10059000214690461C460B46024623F0004010437D
:1005A00047D0270DC7F30A00C3F30A510290401A3F
:1005B000019040286BDAC3F3130040F4801B0098CD
:1005C000924620B10023D2EB030A63EB0B0B019898
:1005D0005946C0F14002504600F0B6F906460D46B5
:1005E00050465946019A00F0CEF910EB08006141DF
:1005F000002487EA115284EAE7731A4340D0009A34
:1006000062B3019A012A4FEA075215DC001B61EB25
:1006100002014FF0004202EA0752CDE90042001CFD
:1006200041F5801132462B4600F080FA03B0BDE858
:10063000F08F40462146F9E7001B61EB0201001CE8
:1006400041F5801300185B412018A2F5001747EB15
:10065000030140EAD570B6196D4111E06D084FEA0B
:10066000360645EAC0754FEA0752001B61EB0201EE
:10067000001C41F5801149084FEA30000019514132
:1006800032462B4603B0BDE8F04F00F040BA009868
:10069000012240000023D0EB020263EBE0730098DC
:1006A00021464FEAE074B8EB000061EB0401E9E792
:1006B00083F000435BE781F0004158E72DE9FE4FEE
:1006C00081EA030404F0004421F0004100944FF05B
:1006D000000B23F0004350EA01045ED052EA030409
:1006E0005BD0C3F30A54C1F30A552C44A4F2F3348B
:1006F0000194A0FB0254C1F3130141F48011C3F330
:10070000130343F4801301FB024400FB034E840AED
:10071000970A44EA815447EA8357A4FB0768029585
:100720008D0A05FB07854FEA932C04FB0C54270523
:10073000029D4FEA065847EA1637B5EB08056EEBFF
:10074000070C870E920E47EA811742EA8312A7FB35
:100750000201B6EB0B0164EB00042B0D43EA0C33F2
:100760005E1844EB1C50DA465146E7FB0201C5F324
:1007700013044FEA0B3343EA14534FEA0432019C4B
:1007800043EA0603A4F10C040294009CCDE900B4F2
:1007900000F0CCF903B0BDE8F08F00200146F9E786
:1007A0002DE9F04D81EA030404F0004B21F00045EF
:1007B00014464FF0000A23F0004150EA050220D011
:1007C00054EA01021DD0C5F30A570246C5F31303CC
:1007D000C1F31300C1F30A5640F4801543F48013AB
:1007E000A7EB0608101BD64608F2FD3873EB050090
:1007F00002D308F1010801E092185B41B8F1000F43
:1008000003DA00200146BDE8F08D00204FF480118E
:10081000064684460EE0171B73EB050705D3121B33
:1008200063EB050306434CEA010C49084FEA30002C
:1008300092185B4150EA0107EDD152EA030012D051
:1008400082EA040083EA0501084305D0101BAB418E
:1008500006D20122002306E000224FF0004302E00E
:100860006FF0010253101AEB06004CEB085110EB2D
:100870000A0041EB0B01BDE8F04D00F048B99623AA
:100880000022114600F015B900F0004220F00040AF
:10089000C10DC0F3160040F400007F2901DA0020EA
:1008A0007047962903DCC1F19601C84001E09639F2
:1008B0008840002AF4D04042704730B50B460146CC
:1008C00000202022012409E021FA02F59D4205D3EF
:1008D00003FA02F5491B04FA02F52844151EA2F199
:1008E0000102F1DC30BD2DE9F05F054600209246A3
:1008F0009B4688460646814640241BE028464146E2
:100900004746224600F02FF853465A46C01A9141F6
:1009100010D311461846224600F016F82D1A67EB40
:1009200001084F4622460120002100F00DF817EB88
:1009300000094E41201EA4F10104DFDC4846314687
:100940002A464346BDE8F09F202A04DB203A00FAFD
:1009500002F1002070479140C2F1200320FA03F316
:10096000194390407047202A04DB203A21FA02F014
:100970000021704721FA02F3D040C2F120029140D9
:10098000084319467047202A06DBCB17203A41FA64
:1009900002F043EAE07306E041FA02F3D040C2F10C
:1009A000200291400843194670473A2800D2303857
:1009B00020F02002412A01D3A2F13700884201D35E
:1009C0004FF0FF3070470000026811441378016057
:1009D00018467047D16004495161044911620021F1
:1009E0001161114600F040B9C9090008550C000812
:1009F000426842B1016811F8013B23B1521EC0E9BF
:100A00000012184670470121C160881E7047426875
:100A10005AB1C368016843B983688B4205D0491E47
:100A2000521CC0E90012002070474FF0FF307047A1
:100A30002DE9F04791460F4680460446002614F8FB
:100A4000015B2DB100F002F90068405DC007F6D1EE
:100A50002B2D02D02D2D18D0641E4A463946204633
:100A600000F098FA27B13968A14201D1C7F8008097
:100A700071054FF002040BD54042002803DD03F05E
:100A800047FB0460A007BDE8F08746F48066E4E712
:100A90000028F8DA03F03CFB04606FF00040F2E756
:100AA0000029A8BF7047401C490008BF20F0010082
:100AB000704710B4B0FA80FC00FA0CF050EA010460
:100AC00004BF10BC704749B1CCF1200421FA04F4F2
:100AD00011FA0CF118BF012121430843A3EB0C01CB
:100AE000CB1D4FEA00614FEA102042BF002010BC2E
:100AF000704700EBC35010440029A4BF10BC7047DE
:100B0000401C490008BF20F0010010BC704710B520
:100B1000141E73F1000408DA401C41F10001921820
:100B20005B411A4301D120F0010010BD2DE9F04DC9
:100B300092469B4611B1B1FA81F202E0B0FA80F21E
:100B400020329046FFF700FF04460F4640EA0A00B5
:100B500041EA0B0153465A46084313D0114653EA63
:100B6000010019D0C8F140025046FFF7FCFE0546CF
:100B70000E46504659464246FFF7E6FE084305D06A
:100B8000012004E020463946BDE8F08D00200543F1
:100B900046EAE0762C4337430A986305E40AA0EB63
:100BA00008000022FD0A44EA47540A3002D500201A
:100BB0000146E9E7010510196941DDE90845001919
:100BC0006941BDE8F04DA2E7C1F30A52C1F3130138
:100BD00040F2FF3341F480119A4202DA00200146CC
:100BE000704740F233439A42A2F2334202DC52424F
:100BF000FFF7B9BEFFF7A8BE30B5041E71F10004BF
:100C000004DB4FF00044404264EB0101141E73F119
:100C1000000405DB1C464FF00043524263EB040323
:100C2000994208BF904230BD064C074D06E0E0688F
:100C300040F0010394E8070098471034AC42F6D323
:100C4000FFF77AFA286200084862000800487047F7
:100C5000C060000810B50446FFF7F8FF0068005DAB
:100C600000F0010010BD00002DE9F34F8BB04FF0F4
:100C7000000801F10C000C464FF0010B46460DF147
:100C8000080A01906269012101989047051E2DD044
:100C9000252D2CD0216A8847C0B1626901210198B5
:100CA0009047216A88470028F7D1411E6269019860
:100CB000904700E0761CA1690B988847216A884715
:100CC0000028F7D1E1690B988847DBE7A1690B9809
:100CD00088470746A84201D1761CD3E7E1690B9803
:100CE00088477F1C02D1B8F1000F6FD046E1002782
:100CF00062693D463946019890472A2804D16269C5
:100D00000121019890470125DFF884926269012151
:100D100001989047A0F130010A290AD24F45E5DC3D
:100D200007EB870100EB4107303FDFD445F01005AA
:100D3000ECE7E90601D46FF000476C280AD04C2894
:100D400014D0682815D06A280DD074281CD07A28B1
:100D50001AD01DE062690121019890476C2802D0E9
:100D600045F0040514E045F002050DE045F02005CE
:100D70000AE06269012101989047682802D045F095
:100D8000080505E045F40065626901210198904776
:100D9000C4E9015765283DD019DC58287AD00CDC0D
:100DA000452837D004DC252826D0412831D131E030
:100DB00046282FD047282CD12CE05B2877D06128FB
:100DC00028D063287CD0642823D15AE0D0E06F2853
:100DD00048D008DC66281DD067281BD0692821D0A0
:100DE0006E2816D127E0702845D0732868D0752862
:100DF00047D078280DD14DE0A1690B98884705466A
:100E000025283FF469AFE1690B9888476D1C3FF4D2
:100E10006AAFB3E023466A466FF001000B99AFF367
:100E200000809EE045F040006060A80723464FF038
:100E3000000236D43EE0E8077FF447AF2068011D8A
:100E400021600068290501D506701BE7290701D537
:100E5000068017E7A90703D5F117C0E9006111E77C
:100E600006600FE745F040006060A80723464FF09A
:100E7000080216D41EE040F60E0125EA010060606B
:100E800016E045F040006060A80723464FF00A02D4
:100E900007D40FE045F040006060A80708D523465E
:100EA00010226FF001000B99AFF3008059E007E0CA
:100EB000234610226FF001000B99FFF7DDF950E097
:100EC0004FF000094F464B46632802D05B2806D0FE
:100ED00040E0E80601D40120A06001273AE0626901
:100EE0000121019890475E2805D14FF00109626900
:100EF000494601989047216939B900210A4653466D
:100F000043F82120491C0829FADBB0B3216969B9EB
:100F1000C11700EBD16253110AEB830122F01F02CB
:100F2000821A01200B68904003430B606269012123
:100F3000019890475D28E8D1B9F1000F09D0002051
:100F4000514651F82020D24341F82020401C082867
:100F5000F7DB02AB224600976FF001000B99AFF36D
:100F6000008000280CDA401C08D1BBF1000F05D02E
:100F70004FF0FF300DB0BDE8F08FFFE74046F9E7D6
:100F8000E90701D108F1010806444FF0000B79E6AA
:100F9000CCCCCC0C2DE9F05F8246007800271546BA
:100FA0008B460AF10104B946302801D09DB113E007
:100FB00014F8010B0127782803D0582801D045B137
:100FC0000AE00DB1102D07D10027102514F8010BF0
:100FD00002E0082500E00A250026B0460EE005FBE9
:100FE000080005FB06F1012701EB10461FFA80F807
:100FF000B6F5803F00D3B94614F8010B2946FFF738
:10100000D4FC0028EBDABBF1000F05D00FB1641E51
:1010100000E05446CBF80040B9F1000F06D003F0D1
:1010200077F802210160C81EBDE8F09F48EA06403B
:10103000FAE721B1826842F00102826003E082682F
:1010400022F001028260704710B5044612488442C3
:1010500008D10121401501F0C3FA0021601501F00B
:10106000BFFA17E00D48844208D10121001501F0B4
:10107000B7FA0021201501F0B3FA0BE008488442CA
:1010800008D10121C80301F0ABFA00214FF4004060
:1010900001F0A6FA10BD0000002401400028014024
:1010A000003C0140014600208A6802F004020AB1B7
:1010B000012000E0002070470146C86C80B27047F4
:1010C0000246002013680B400BB1012000E0002015
:1010D0007047014600208A6802F008020AB1012028
:1010E00000E000207047000030B5024600200023D9
:1010F00050680F4C20400D790C6844EA05242043C9
:10110000506090680B4C2040D1E902542C434D793B
:1011100044EA450420439060D06A20F470000C7CBF
:10112000641EE4B2234340EA0350D06230BD0000A5
:10113000FFFEF0FFFDF7F1FFF0B504460D4600207D
:101140000021092D11DDE068A5F10A0606EB46072E
:10115000072606FA07F18843A5F10A0606EB4606BC
:1011600003FA06F10843E0600CE0206905EB45074F
:10117000072606FA07F1884305EB450603FA06F150
:1011800008432061072A0FDA606B561E06EB8607BC
:101190001F2606FA07F18843561E06EB860605FA57
:1011A00006F10843606322E00D2A0FDA206BD61F98
:1011B00006EB86071F2606FA07F18843D61F06EBC3
:1011C000860605FA06F10843206310E0E06AA2F102
:1011D0000D0606EB86071F2606FA07F18843A2F1E3
:1011E0000D0606EB860605FA06F10843E062F0BD3F
:1011F000816841F008018160704721B1826842F442
:10120000A002826003E0826822F4A002826070473C
:10121000816841F0040181607047000000B585B02D
:101220000121C80301F0CCF90121C80301F0D8F96C
:1012300000214FF4004001F0D3F91648FFF704FFF6
:10124000002000908DF804008DF805004FF4602018
:1012500002900020039001208DF8100069460D488F
:10126000FFF742FF01210B48FFF7E3FE0948FFF7B4
:10127000BFFF00BF0748FFF72CFF0028FAD1054841
:10128000FFF7C6FF00BF0348FFF70CFF0028FAD1A5
:1012900005B000BD003C014000B587B001214FF40E
:1012A000017001F08DF90220ADF8180000208DF8D2
:1012B0001B0003208DF81A0006A91A4800F071FAE5
:1012C0004FF4004001F050F91748FFF7BDFE002031
:1012D0008DF8090004904FF46020039000200190E5
:1012E00001208DF8140000208DF8080001A90E4897
:1012F000FFF7FAFE01210C48FFF79BFE0A48FFF7B3
:1013000077FF00BF0848FFF7E4FE0028FAD106483F
:10131000FFF77EFF00BF0448FFF7C4FE0028FAD1A4
:1013200007B000BD000801400024014008B50121BC
:10133000082001F045F94FF48070ADF8000010204E
:101340008DF8030003208DF802006946044800F080
:1013500028FA4FF48071024800F0B7FA08BD000087
:10136000000C014010B54FF48071024800F0ADFA56
:1013700010BD0000000C014010B54FF48071024810
:1013800000F0A5FA10BD0000000C014070470000FD
:1013900070B505460C462246294615480068801C53
:1013A000FEF7E2FE2046E11704EB1161090A104A3C
:1013B00012681170E11704EB11610912A4EB01210D
:1013C0000B4A12685170002109480268A01C115490
:1013D0000748006800F596700549086008460068EF
:1013E00004490968884202D103480149086070BD78
:1013F00078000020800000205F18002010B5002435
:101400001848006820F070601649086008460068B7
:1014100040F00060086004E0601CC4B2012000F0ED
:10142000EFF840210F4800F047FA012801D1462C7F
:10143000F2DB462C01DB012010BD002404E0601C1F
:10144000C4B2012000F0DCF84021064800F034FA74
:1014500008B9462CF3DB462C01DB0220ECE7002028
:10146000EAE700000008014008B50121042001F06E
:10147000A7F84020ADF8000003208DF802001020EE
:101480008DF803006946044800F08BF900F070F80D
:10149000FFF7B4FF08BD00000008014010B50024AC
:1014A00004E0601CC4B2012000F0AAF840211048FA
:1014B00000F002FA012801D1282CF2DB002404E01C
:1014C000601CC4B2012000F09BF84021084800F0E5
:1014D000F3F908B93C2CF3DB232000F091F840210C
:1014E000034800F0E9F908B1012010BD0020FCE735
:1014F0000008014070B50024002506E06006040ED7
:10150000FFF7CCFF0443681CC5B2082DF6DB20466C
:1015100070BD7CB505460E4600F02AF8FFF76EFF59
:1015200008BB002405E0FFF7E5FF0DF80400601C90
:10153000C4B2052CF7DB9DF800009DF801100844AB
:101540009DF8021008449DF8031008449DF804100B
:10155000884206D19DF8000030709DF80200287086
:1015600003E001207CBD0220FCE70020FAE7000038
:1015700010B50E48006820F070600C4908600846FD
:10158000006840F04070086000224021074800F0E9
:10159000A0F91E2000F00EF801224021034800F0BF
:1015A00098F91E2000F02CF810BD00000008014042
:1015B000704700000146114A12884A434FF0E02369
:1015C0005A6100229A611A46126942F001021A61B8
:1015D00000BF4FF0E022106900F001021AB100F4E0
:1015E0008032002AF5D04FF0E022126922F0010289
:1015F0004FF0E0231A6100229A6170475C000020DE
:101600000146114A12784A434FF0E0235A61002202
:101610009A611A46126942F001021A6100BF4FF046
:10162000E022106900F001021AB100F48032002AB1
:10163000F5D04FF0E022126922F001024FF0E023D2
:101640001A6100229A6170475A00002010B56FF0AD
:10165000040001F02FFA0A4800680A49B0FBF1F0D3
:10166000094908700846007800EB4001C1EBC01042
:101670004FF6FF7101EAC0000449088010BD000068
:10168000B400002000127A005A0000205C00002004
:1016900030B5044604254FF4302000F06FF80546BD
:1016A000042D17D10C48006940F002000A49086176
:1016B00008464461006940F0400008614FF4302062
:1016C00000F05CF805460448006941F6FD710840E9
:1016D00001490861284630BD0020024004200B4922
:1016E000C96801F0010109B101200EE00749C9688C
:1016F00001F0040109B1022007E00449C96801F0C2
:10170000100109B1032000E00420704700200240CE
:101710000348006940F080000149086170470000FB
:101720000020024070B504460D460426F00200F089
:1017300025F80646042E11D10948006940F0010041
:10174000074908612580F00200F018F806460448B1
:10175000006941F6FE71084001490861304670BDDC
:10176000002002400248034948600348486070472F
:101770002301674500200240AB89EFCD00B502464A
:101780000423FFF7ABFF034603E0FFF7A7FF034681
:10179000521E012B01D1002AF7D102B905231846A8
:1017A00000BD2DE9F041024600250026002000235F
:1017B0000024002791F803C00CF00F0591F803C036
:1017C0000CF0100CBCF1000F03D091F802C04CEAF1
:1017D000050591F800C0BCF1000F31D0146800205D
:1017E0002BE04FF0010C0CFA00F3B1F800C00CEA4A
:1017F00003069E4220D183004FF00F0C0CFA03F732
:10180000BC4305FA03FC4CEA040491F803C0BCF1A4
:10181000280F06D14FF0010C0CFA00FCC2F814C0DE
:101820000AE091F803C0BCF1480F05D14FF0010C5C
:101830000CFA00FCC2F810C0401C0828D1D3146078
:10184000B1F800C0BCF1FF0F34DD546800202EE079
:1018500000F1080C4FF0010808FA0CF3B1F800C0D1
:101860000CEA03069E4221D183004FF00F0C0CFAC4
:1018700003F7BC4305FA03FC4CEA040491F803C0E7
:10188000BCF1280F05D100F1080C08FA0CF8C2F8D9
:10189000148091F803C0BCF1480F07D100F1080C87
:1018A0004FF0010808FA0CF8C2F81080401C082814
:1018B000CED35460BDE8F0810246002093680B400F
:1018C0000BB1012000E000207047416170470161C9
:1018D00070470AB1016100E04161704710B50446EC
:1018E0000723012221460948FFF726FC012107486A
:1018F000FFF783FC00BF02210448FFF7E1FB00284B
:10190000F9D00248FFF7D8FB10BD0000003C0140B1
:1019100010B504460723012221460948FFF70CFCB5
:1019200001210748FFF769FC00BF02210448FFF7C7
:10193000C7FB0028F9D00248FFF7BEFB10BD00002E
:10194000002401402DE9F05F80460C460025002769
:1019500008E04046FFF7DCFF05440120FFF72AFEC0
:10196000781CC7B2A742F4DBB5FBF4F94846FEF792
:1019700086FF064631460A48FEF783FD834609493D
:10198000FEF7B7FD82460849FEF781FD8146FEF766
:101990007BFF064908600846008880B2BDE8F09FDA
:1019A00000C07F4500C04D450000C842B000002087
:1019B0007047000010B520210748FFF788FF8021FD
:1019C0000548FFF784FF80210348FFF77EFF2021B1
:1019D0000148FFF77AFF10BD0008014010B5202133
:1019E0000548FFF774FF80210348FFF76EFF802151
:1019F0000148FFF76CFF10BD0008014010B5202121
:101A00000348FFF764FF20210148FFF75EFF10BD88
:101A10000008014010B580213548FEF7BEFB35A215
:101A200037A1334802F04EFB3148FEF7D3FB35496E
:101A3000086080213448FEF7B0FB34A230A1324860
:101A400002F040FB3048FEF7C5FB324908608021B8
:101A50003148FEF7A2FB2DA229A12F4802F032FB4C
:101A60002D48FEF7B7FB2D49086080212C48FEF772
:101A700094FB2CA222A12A4802F024FB40F25B70C6
:101A80002B4908600846264902682AA003F03AFE5E
:101A900017492DA003F036FE1B492FA003F032FE9C
:101AA0001D4931A003F02EFE1D4A33A1344802F037
:101AB00009FB1023324A0021084600F02BFD1C4888
:101AC00030A102682E4802F0FDFA10232C4A0221B0
:101AD000002000F01FFD0C4A2CA1294802F0F2FA68
:101AE0001023274A0421002000F014FD10BD00003F
:101AF0003B1E00206D7174745F7465737430310027
:101B00002573000084000020BB1E00206573703820
:101B100032363600880000203B1F00208C00002059
:101B2000BB1F0020382E3133342E36382E38390082
:101B300090000020B7FE20CEF120C6F7A3BA25738F
:101B40003A25640D0A000000BFCDBBA7B6CB4944BF
:101B5000A3BA25730D0A0000D3C320BBA720C3FB83
:101B6000A3BA25730D0A0000C3DC20202020C2EB9D
:101B7000A3BA25730D0A000049503A2573000000EE
:101B800067210020506F72743A25640055736572A6
:101B90003A25730008B50121082000F011FD20202E
:101BA000ADF8000003208DF8020010208DF803002E
:101BB00069460448FFF7F5FD20210248FFF787FE3C
:101BC00008BD0000000C014010B520210148FFF7BE
:101BD0007EFE10BD000C014010B520210148FFF72A
:101BE00074FE10BD000C014070B50024002508E013
:101BF0000620FFF773FE04440520FFF7DBFC681C9A
:101C0000C5B20A2DF4DB0A20B4FBF0F4B4F57A6F08
:101C100001D94FF47A642820B4FBF0F0C0F16400DD
:101C2000C0B270BD08B50121802000F0C9FC4FF49E
:101C30008070ADF8000000208DF80300694603486D
:101C4000FFF7AFFDFFF7EAFA08BD0000001C0140F6
:101C500010B516481649086008460068154908601E
:101C60001548164908601648164908600846006875
:101C70001549086015481649086016481649086055
:101C8000084600681549086015481649086000F0C4
:101C900037F8002114A000F047FA00201549087019
:101CA000154908701549087010BD0000EF000020AC
:101CB00060000020640000207B0B002068000020F2
:101CC000A70C00206C0000207000002033170020BB
:101CD000740000205F180020780000207C000020A5
:101CE0000F1D002080000020746F7069635F6F6EAD
:101CF00065000000A3000020A2000020A00000203A
:101D000070B501207A4908600A207A4908607A484B
:101D10000068001D794909680844801C78490968F1
:101D2000084478490860734800680968441810201E
:101D30007549087000BF2046E11704EB5161C911D5
:101D4000A4EBC115E11704EB5161CC11002C01DDAE
:101D500045F080056C48664A1268855464480068FE
:101D6000401C63490860002CE5DC0021664A60489D
:101D70000068115404215E480068401C11544D2134
:101D80005B480068801C1154512159480068C01CF0
:101D90001154542156480068001D115454480068DD
:101DA000401D1154042152480068801D1154C22165
:101DB0004F480068C01D115400214D48006808308C
:101DC000115464214A480068093011544A4908688E
:101DD000C11700EB1161C1F307224B4B444909685D
:101DE0000A315A5444490868C11700EB11610912BD
:101DF000A0EB0121CAB23E4909680B315A541A4678
:101E00003B4909680C3150183B490A683F49FEF7C5
:101E1000ABF93A490868C11700EB1161C1F3072219
:101E2000334909680C31344B1B681944364B5A54FA
:101E300032490868C11700EB11610912A0EB0121BA
:101E4000CAB22B4909680D312B4B1B6819442E4B24
:101E50005A54274909680E31274A126811441A4614
:101E6000881826490A682A49FEF77EF92449086835
:101E7000C11700EB1161C1F307221D4909680E313A
:101E80001D4B1B6819441D4B1B6819441E4B5A54AB
:101E90001B490868C11700EB11610912A0EB012171
:101EA000CAB2134909680F31134B1B681944134B0D
:101EB0001B681944144B5A540D49096810310E4AD5
:101EC000126811440D4A126811441A4688180C49C8
:101ED0000A681049FEF748F905480068054A126883
:101EE0001044084A12688118074801F04BFB70BD86
:101EF000940000209800002084000020880000202A
:101F00008C0000209C0000203B2000203B1E002075
:101F1000BB1E00203B1F00202DE9F04FD1B08046B2
:101F200098F8011098F8000001EB0020509008F19B
:101F300002070020814605460646834601244FF0ED
:101F4000010A00BF0BF1010B00BF281917F8009020
:101F500009F07F0000FB0A664FEACA1A641C09F008
:101F600080000028F1D13019054431195098401AE9
:101F700050900124A246002650980028E2D15946EC
:101F800020A003F0BFFB00200546064600BF00BFAF
:101F90004C9030E000BF281917F8009009F07F003E
:101FA00000FB0A664FEACA1A641C09F08000002888
:101FB000F1D1601C2844395C6019385C01EB0020C9
:101FC000801C4F904F98301A4E9029194F98084412
:101FD0004D904D98391801A84E9AFEF7C5F801A802
:101FE0004E99FFF7D5F9301905440124A246002681
:101FF0004C98401C4C904C985845CBDB51B0BDE8F8
:10200000F08F0000B1BEB4CEBDD3CAD5C1CB25641C
:10201000B8F6CDC6CBCDCAFDBEDD0D0A000000006E
:1020200010B5C02004490870002048700221024801
:1020300001F0A8FA10BD00003B2000202DE9F04778
:102040000546884616460120334908602846FEF7B3
:10205000C1F8801C314908603148066008460068B4
:102060002F490968441830202E49087000BF2046C7
:10207000E11704EB5161C911A4EBC117E11704EB9F
:102080005161CC11002C01DD47F080072548224A20
:102090001268875420480068401C1F490860002CC3
:1020A000E5DC2846FEF796F8C0F307211D4A1A48DA
:1020B000006811542846FEF78DF8C1B2194A164837
:1020C0000068401C11542846FEF784F88146154AE2
:1020D00011490968891C50184A462946FEF744F8F8
:1020E0002846FEF777F80C490968891C08440D4911
:1020F00000EB0109324641464846FEF735F80648EE
:102100000068064A12681044054A1268811805489A
:1021100001F038FABDE8F087940000209800002014
:102120009C0000203B20002070B504460D46022094
:102130001F4908601F4908602046FEF74BF8C01C85
:102140001D49086082201D4908701A4800781A4904
:102150000978084419494870002088700120C87027
:102160002046FEF737F8000A144908712046FEF7AA
:1021700031F8124948712046FEF72CF806463246DF
:1021800021460E48801DFDF7EFFF2046FEF722F89E
:10219000801D0A490D5406480068064A126810441A
:1021A000054A12688118054801F0ECF970BD00007D
:1021B00094000020980000209C0000203B2000207C
:1021C00070470146002209B90020704706E00878F0
:1021D000303802EB820300EB4302491C08780028E8
:1021E000F5D11046F1E7704770B5002100230F22AA
:1021F000C47804B3154C246804F4E064C4F5E064C6
:10220000210AC1F10403CA40447804FA03F1847836
:102210001440214309010E4C0678A155047804F0BE
:102220001F050124AC4005786D11AD0005F1E025D6
:10223000C5F8004109E0047804F01F050124AC4012
:10224000044D0678761145F8264070BD0CED00E08F
:1022500000E400E080E100E002490143024A11602D
:10226000704700000000FA050CED00E070B5002496
:1022700018E004F1B000002100F069F900210846DF
:1022800000F065F90021102000F061F9002505E05B
:102290000121002000F05BF9681CC5B2802DF7DB3E
:1022A000601CC4B2082CE4DB70BD000008B501213D
:1022B000042000F085F9A020ADF8000010208DF872
:1022C000030003208DF8020069463C48FFF769FAD5
:1022D000A0213A48FFF7FBFA4FF44870FFF76AF97C
:1022E0000021AE2000F033F90021084600F02FF95C
:1022F0000021102000F02BF90021402000F027F9E8
:102300000021B02000F023F90021812000F01FF906
:102310000021FF2000F01BF90021A12000F017F997
:102320000021A62000F013F90021A82000F00FF9E9
:1023300000213F2000F00BF90021C82000F007F930
:102340000021D32000F003F90021084600F0FFF837
:102350000021D52000F0FBF80021802000F0F7F8E4
:102360000021D82000F0F3F80021052000F0EFF85C
:102370000021D92000F0EBF80021F12000F0E7F86F
:102380000021DA2000F0E3F80021122000F0DFF84D
:102390000021DB2000F0DBF80021302000F0D7F82E
:1023A00000218D2000F0D3F80021142000F0CFF898
:1023B0000021AF2000F0CBF808BD0000000801406C
:1023C00070B504460D4605F1B000002100F0BFF8DD
:1023D000102141EA1410002100F0B9F804F00F00B8
:1023E000002100F0B4F870BD2DE9F04707460E4615
:1023F0009046994600250024A8F12000C5B27F2F01
:1024000002DD0027B01CC6B2B9F1100F24D131464D
:102410003846FFF7D5FF002408E004EB0511194A00
:10242000505C012100F093F8601CC4B2082CF4DB6E
:10243000701CC1B23846FFF7C3FF002409E004EB6B
:10244000051108310F4A505C012100F080F8601C32
:10245000C4B2082CF3DB12E031463846FFF7B0FF78
:1024600000240AE005EB4501074A02EB4101085D43
:10247000012100F06CF8601CC4B2062CF2DBBDE850
:10248000F08700004C5A0008245800082DE9FF5F2F
:10249000074691461E460E9D4FF0000A002435E087
:1024A000301B401EC1B20A2003F020F9B9FBF0F046
:1024B0000A21B0FBF1F201FB1208BAF1000F14D1AE
:1024C000701EA04211DDB8F1000F0CD1AB4605EB38
:1024D000DB71491001FB0471C8B22B46202201991F
:1024E000FFF782FF10E04FF0010AAB4605EBDB710E
:1024F000491001FB0471C8B208F13001CAB22B4681
:102500000199FFF771FF00BF601CC4B2B442C7DB82
:10251000BDE8FF9F2DE9F04104460F461546984659
:1025200000260FE0AA5D434639462046FFF75CFFD0
:1025300004F10800C4B2782C02DD0024B81CC7B234
:10254000701CC6B2A85D0028ECD1BDE8F08170B562
:1025500004460D461DB1E0B201F09EFD02E0E0B27E
:1025600001F084FD70BD704701460020034A5068A9
:1025700020F44040084350607047000000100240C3
:1025800029B1064AD2690243044BDA6104E0034AE6
:10259000D2698243014BDA617047000000100240AB
:1025A00029B1064A12690243044B1A6104E0034A46
:1025B00012698243014B1A6170470000001002400B
:1025C00029B1064A92690243044B9A6104E0034A26
:1025D00092698243014B9A617047000000100240EB
:1025E00029B1064AD2680243044BDA6004E0034A88
:1025F000D2688243014BDA6070470000001002404D
:1026000030B500210022002400232D4D6D6805F017
:102610000C0121B1042905D0082923D105E0294D59
:10262000056022E0274D05601FE0254D6D6805F42B
:102630007012234D6D6805F48034022505EB92423B
:102640001CB9214D554305600BE01D4D6D6805F427
:1026500000351DB11C4D5543056002E0194D554331
:10266000056002E0174D056000BF00BF144D6D68A6
:1026700005F0F0010909154D6B5C0568DD4045600A
:102680000F4D6D6805F4E061090A104D6B5C4568FB
:10269000DD4085600A4D6D6805F46051C90A0B4D37
:1026A0006B5C4568DD40C560054D6D6805F44041D3
:1026B000890B074D6B5CC568B5FBF3F5056130BD53
:1026C0000010024000127A0000093D00C8000020FE
:1026D000D800002008B501210802FFF771FF102083
:1026E000ADF8000014208DF8030003208DF80200DF
:1026F00069460448FFF755F810210248FFF7E7F84C
:1027000008BD00000020014010B510210148FFF76E
:10271000DEF810BD0020014010B510210148FFF780
:10272000D4F810BD0020014008B501211020FFF7AA
:1027300047FF0820ADF8000010208DF803000320AB
:102740008DF8020069460448FFF72BF8082102487B
:10275000FFF7BBF808BD00000010014010B50821CC
:102760000148FFF7B2F810BD0010014010B5082174
:102770000148FFF7ACF810BD0010014030B503462A
:102780000C461546002207E0184600F008F824F829
:1027900012009B1C501C82B2AA42F5DB30BD0146E0
:1027A000088870472DE9F05F80468A461746B8F1E1
:1027B000006F02D33348804501D3BDE8F09FFEF798
:1027C000D1FFA8F1006B4FEADB25CBF34909C9F52E
:1027D0008064A74200DC3C464DE04FF0006101EB15
:1027E000C5204A142849FFF7C9FF00260BE009EB72
:1027F0000600254931F810004FF6FF71884200D0DD
:1028000003E0701C86B2A642F1DB00BFA6421BDAD1
:102810004FF0006101EBC520FEF73AFF002608E00B
:102820003AF8160006EB0901174A22F81100701C4D
:1028300086B2A642F4DB4FF0006101EBC5204A14DA
:10284000114900F023F804E022465146404600F0CA
:102850001DF8A74200D10FE06D1C4FF000090AEBF4
:10286000440AA044381B87B2B7F5806F02DD4FF4ED
:10287000806400E03C46B0E700BFFEF749FF00BFC0
:102880009BE7000000000808882A00202DE9F0419D
:1028900005460E461746002407E036F81410284671
:1028A000FEF740FFAD1C601C84B2BC42F5DBBDE806
:1028B000F081704710B5E4B0802143A8FDF76DFCAE
:1028C0004FF4807103A8FDF768FC00206390124864
:1028D000007812490978CDE90010114803781148B1
:1028E00090F90020104943A801F0ECFB03AB43AA88
:1028F0000221012000F00AFE0C480078012808D1CE
:1029000003A8FDF767FC0446224603A908A0FFF7C9
:1029100095FB64B010BD00001500002017000020DA
:10292000160000201400002048610008A1000020CB
:1029300066615F6D7367000010B5ADF5047D4FF4FF
:10294000807143A8FDF729FC4FF4807103A8FDF7BF
:1029500024FC002083901348006813490968134A37
:102960001268CDE90021029011480368114812490C
:10297000026843A801F0A6FB03AB43AA0121084665
:1029800000F0C4FD0D480078012808D103A8FDF728
:1029900021FC0446224603A909A0FFF74FFB0DF5D1
:1029A000047D10BD54000020500000204C00002089
:1029B00048000020440000208C610008A100002095
:1029C000646174615F6D73670000000010B500F012
:1029D00001F810BD0CB5002001900090334800684C
:1029E00040F480303149086000BF3048006800F48E
:1029F000003000900198401C0190009818B901988F
:102A0000B0F5A06FF1D12948006800F4003010B192
:102A10000120009001E0002000900098012843D19F
:102A20002348006840F0100021490860084600680B
:102A300020F0030008600846006840F002000860CB
:102A40001A48406819494860084640684860084686
:102A5000406840F4806048600846406820F47C107C
:102A600048600846406840F4E8104860084600683E
:102A700040F08070086000BF0C48006800F00070F3
:102A80000028F9D00948406820F003000749486051
:102A90000846406840F00200486000BF03484068B4
:102AA00000F00C000828F9D10CBD00000010024015
:102AB00000200240042808D14FF0E021096941F0CC
:102AC00004014FF0E022116107E04FF0E0210969B5
:102AD00021F004014FF0E0221161704770470000BF
:102AE00010B51348006840F001001149086008461D
:102AF0004068104908400E494860084600680E4981
:102B000008400B4908600846006820F480200860EF
:102B10000846406820F4FE0048604FF41F008860BB
:102B2000FFF754FF4FF000600449086010BD00003B
:102B3000001002400000FFF8FFFFF6FE08ED00E085
:102B40001FB54FF4A060FFF787FB01210846FFF790
:102B500017FD4FF0804000F06DFB44F61F60ADF8AC
:102B6000080042F6DF60ADF804000020ADF8060072
:102B7000ADF80A0001A94FF0804000F075FC01217A
:102B8000880700F047FB01221146900700F060FC27
:102B90000121880700F041FB1C208DF80000022075
:102BA0008DF8010001208DF802008DF803006846C1
:102BB000FFF71AFB1FBD000070B5D4B0002400253C
:102BC0000121880700F033FC00287DD0FFF70CF8C6
:102BD0009949087052A953A8FEF79BFC0A210120CD
:102BE000FEF7B0FE954908709DF84C010A2190FB54
:102BF000F1F03030C0B28DF844019DF84C0190FBEB
:102C0000F1F201FB12003030C0B28DF84501002016
:102C10008DF846019DF8480190FBF1F03030C0B2CC
:102C20008DF840019DF8480190FBF1F201FB120084
:102C30003030C0B28DF8410100208DF842013421BE
:102C400042A8FDF7AAFA4FF4807102A8FDF7A5FA91
:102C500000204F9050A8FFF7B4FA7949087051A8A6
:102C6000FFF7AFFA40B277490870032094FBF0F108
:102C700000FB1140012806D17348007818B9FFF70E
:102C8000F5FA601CC4B202F0FDFC10200223009093
:102C90006C4890F9002000212320FFF7F7FB10205B
:102CA000022300906648027800216420FFF7EEFBC3
:102CB0001020022300906148027819463720FFF760
:102CC000E5FB1020022300E0B3E000905A480278B0
:102CD00004213220FFF7DAFB10235CA206212D200D
:102CE000FFF718FC58480078002860D0032094FBB8
:102CF000F0F100FB114030B1032094FBF0F100FB38
:102D00001140022803D1FFF7B1FA601CC4B202F0EF
:102D1000B9FC1020022300904A4890F900200021BD
:102D20002320FFF7B3FB10200223009044480278D1
:102D300000216420FFF7AAFB1020022300903F48E7
:102D4000027819463720FFF7A1FB102002230090DC
:102D50003948027804213220FFF798FB10233CA267
:102D600006212D20FFF7D6FB354800783949097830
:102D7000884205DB38A03A490860FEF72DFF04E0E1
:102D800038A037490860FEF71FFF2E4890F9000071
:102D900036490978884205DB35A037490860FFF7D6
:102DA000E5FC04E035A034490860FFF7D7FC25486E
:102DB00090F90000002816DA21480378214890F99C
:102DC000002031A142A801F07DF9364800780128A1
:102DD0002BD142A8FDF7FEF90646324642A932A0A1
:102DE000FFF72CF921E01548007815490978CDE95D
:102DF0000010144890F900300F4802782B4942A87F
:102E000001F060F902AB42AA0021012000F07EFB34
:102E100024480078012808D102A8FDF7DBF906460E
:102E2000324602A920A0FFF709F90121880700F026
:102E3000F1F954B070BD0000020000200300002032
:102E40000100002000000020190000204F4646002D
:102E50004F4E0000160000204C45444F4E0000002D
:102E6000440000204C45444F46460000140000201A
:102E700052454C41594F4E004C00002052454C41A8
:102E8000594F4646000000007B2254656D223A22CD
:102E90002D2564222C2248756D223A222564227D3C
:102EA00000000000A100002024647000D861000828
:102EB0001FB54FF4A060FFF7CFF901210220FFF703
:102EC0005FFB184800F0B6F944F61F60ADF8080043
:102ED00041F61F40ADF804000020ADF80600ADF843
:102EE0000A0001A90F4800F0BFFA01210D4800F0C7
:102EF00091F9012211460B4800F0AAFA0121094874
:102F000000F08BF91D208DF8000001208DF80100E4
:102F100000208DF8020001208DF803006846FFF7BD
:102F200063F91FBD000400401FB54FF4A060FFF718
:102F300093F901210220FFF723FB184800F07AF9EA
:102F40004EF65F20ADF8080048F69F40ADF804004B
:102F50000020ADF80600ADF80A0001A90F4800F006
:102F600083FA01210D4800F055F9012211460B4862
:102F700000F06EFA0121094800F04FF91D208DF88C
:102F8000000002208DF8010001208DF802008DF86C
:102F900003006846FFF728F91FBD00000004004049
:102FA00010B50121164800F042FA38B315480078F0
:102FB000062819D2DFE800F003060B0C0D10FFF70E
:102FC0002FF811E0FFF774FFFFF72AF80CE000BFBD
:102FD00000BFFFF725F807E000200B49087000212B
:102FE000074800F01AF900BF00BF06480078401CEF
:102FF000044908700121024800F00CF910BD0000DE
:1030000000040040A0000020A100002010B5012114
:103010001D4800F00CFA002834D01C481C490268F6
:103020001C480068801CFDF79FF818480088000ABB
:1030300018490968087015480078164909684870E9
:103040001448006800F59670124908600846006848
:1030500011490968884202D110480E4908600020D1
:103060000A49086000210E4800F0FBF900210648DB
:1030700000F0D3F80021044800F0F3F901210248E0
:1030800000F0C8F810BD000000080040A8000020B3
:10309000882200206000002068000020EF0000204F
:1030A000000400407FB505460C464FF4A060FFF7D2
:1030B000D3F801210420FFF763FAADF80850ADF80A
:1030C00004400020ADF80600ADF80A0001A9104840
:1030D00000F0CAF901210E4800F09CF801221146C7
:1030E0000B4800F0B5F90021094800F096F81E20C1
:1030F0008DF8000001208DF8010000208DF80200FD
:1031000001208DF803006846FFF76EF87FBD0000D0
:10311000000800401CB50121144800F07FF9F8B107
:1031200013480078C8B113480078B0B1124800784D
:1031300012490978CDE90010114803781148027846
:1031400011A1144800F0BEFF124913A002F0DAFAF0
:103150000B2210491348FFF725FB00200449087093
:103160000121024800F056F81CBD0000000C004090
:103170001800002019000020150000201700002072
:10318000160000201400002025643A25643A2564C6
:103190003A2564007B21002077726974653A2573B3
:1031A0000D0A0000000007087FB505460C464FF4E5
:1031B000A060FFF751F801210820FFF7E1F9ADF811
:1031C0000850ADF804400020ADF80600ADF80A0044
:1031D00001A90F4800F048F901210D4800F01AF844
:1031E000012211460A4800F033F90121084800F095
:1031F00014F832208DF8000001208DF801008DF8C0
:1032000002008DF803006846FEF7EEFF7FBD000068
:10321000000C0040CA430282704721B1028842F08C
:103220000102028004E002884FF6FE731A40028019
:103230007047000010B504466848844208D1012157
:10324000C014FFF7CDF90021E014FFF7C9F9C4E07D
:10325000B4F1804F08D101210846FFF7A1F9002100
:103260000120FFF79DF9B8E05D48844208D10121B3
:103270000220FFF795F900210220FFF791F9ACE059
:103280005848844208D101210420FFF789F9002120
:103290000420FFF785F9A0E05348844208D10121BA
:1032A0000820FFF77DF900210820FFF779F994E065
:1032B0004E48844208D101211020FFF771F9002106
:1032C0001020FFF76DF988E04948844208D10121B8
:1032D0002020FFF765F900212020FFF761F97CE04D
:1032E0004448844208D101214014FFF779F90021B4
:1032F0006014FFF775F970E03F48844209D101215D
:10330000C804FFF76DF900214FF40020FFF768F9BA
:1033100063E03A48844209D101210805FFF760F9CA
:1033200000214FF48010FFF75BF956E034488442E7
:1033300009D101214805FFF753F900214FF400108E
:10334000FFF74EF949E02F48844208D1012140207F
:10335000FFF726F900214020FFF722F93DE02A4837
:10336000844208D101218020FFF71AF90021802032
:10337000FFF716F931E02548844208D10121801574
:10338000FFF70EF90021A015FFF70AF925E0204804
:10339000844209D101210804FFF722F900214FF4EA
:1033A0008030FFF71DF918E01A48844209D1012145
:1033B0004804FFF715F900214FF40030FFF710F92A
:1033C0000BE01548844208D101218804FFF708F971
:1033D00000214FF48020FFF703F910BD002C0140BD
:1033E0000004004000080040000C004000100040B5
:1033F0000014004000340140004C014000500140E6
:103400000054014000180040001C00400020004013
:1034100000400140004401400048014002460020B5
:10342000138A0B400BB1012000E00020704730B53B
:103430000246002000230024158A05EA010395892D
:1034400005EA010413B10CB1012000E0002030BDF9
:103450001AB183890B43838102E083898B43838183
:103460007047818470470000002202881D4B9842FB
:103470000ED01D4B98420BD0B0F1804F08D01B4BA3
:10348000984205D01A4B984202D01A4B984204D168
:103490004FF68F731A404B881A43174B984207D048
:1034A000164B984204D04FF6FF431A40CB881A437C
:1034B00002808B8883850B8803850A4B98420BD04A
:1034C000094B984208D00E4B984205D00D4B9842BC
:1034D00002D00D4B984201D10B7A038601238382DF
:1034E00070470000002C01400034014000040040FF
:1034F00000080040000C0040001000400014004094
:103500000040014000440140004801402DE9F04FD7
:1035100085B004460D4616461F460FF22C080FF2E2
:1035200038090FF2400A0FF2480B2346424611A118
:103530003846CDE9036BCDE9015ACDF8009000F093
:10354000C1FD05B0BDE8F08F7B22446576696365F7
:103550006E616D65223A00002C227374617475737C
:10356000223A2200222C226D7367223A5B0000006F
:103570005D7D0000257325642573256425732573FF
:103580002573000070B505460C46224629461348AF
:103590000068801CFCF7E8FD2046E11704EB116190
:1035A000090A0E4A12681170E11704EB1161091241
:1035B000A4EB0121094A126851700848006800F51F
:1035C00096700649086008460068054909688842FF
:1035D00002D104480149086070BD00006C00002061
:1035E00074000020A70C002010B540F225511848A7
:1035F00000F09CF858B31748007880B91448001DB3
:10360000008820B31248001D00881349134A12682D
:10361000885412480068401C1049086017E00C48A4
:10362000001D00880C490D4A126888540B48006838
:1036300020B901210A48FFF7F0FD03E00021084806
:10364000FFF70FFF05480068401C0449086010BDE3
:1036500000440040A100002088220020A800002093
:103660000008004001F40072B2F5007F00D100BFF5
:10367000CA430280704721B1828942F4005282819C
:1036800004E082894DF6FF731A4082817047000082
:1036900010B504462048844209D101218803FEF771
:1036A0009FFF00214FF48040FEF79AFF32E01B4855
:1036B000844209D101214804FEF772FF00214FF432
:1036C0000030FEF76DFF25E01548844209D1012145
:1036D0008804FEF765FF00214FF48020FEF760FFAD
:1036E00018E01048844209D10121C804FEF758FFB0
:1036F00000214FF40020FEF753FF0BE00A488442FC
:1037000008D101210805FEF74BFF00214FF480107E
:10371000FEF746FF10BD00000038014000440040A5
:1037200000480040004C00400050004070B5024688
:10373000002400230025002040F66A16B14200D183
:1037400000BFC1F3421501F01F03012606FA03F37F
:10375000012D02D19689334006E0022D02D1168A4E
:10376000334001E0968A33400C12012606FA04F435
:103770001688344013B10CB1012000E0002070BD68
:10378000F0B50346002400260025002040F66A1705
:10379000B94200D100BF1846C1F3421401F01F0620
:1037A000012707FA06F5012C01D10C3004E0022CA8
:1037B00001D1103000E014301AB107682F430760C0
:1037C00002E00768AF430760F0BD00002DE9F04755
:1037D00086B005460E460024A24600BFA14600273B
:1037E000B08900B100BF2F462C8A4CF6FF70044010
:1037F000F08804432C82AC894EF6F3100440B08864
:1038000031890843718908430443AC81AC8A4FF67F
:10381000FF400440B0890443AC8201A8FEF7F0FEEB
:103820001F48874202D1DDF810A001E0DDF80CA0AE
:10383000A88900F4004040B10AEBCA0000EB0A106E
:1038400031684900B0FBF1F807E00AEBCA0000EB71
:103850000A1031688900B0FBF1F86420B8FBF0F081
:1038600004012009642101FB1089A88900F40040AB
:1038700040B1322000EBC900B0FBF1F000F00700CE
:10388000044308E0322000EB09106421B0FBF1F0A2
:1038900000F00F0004432C8106B0BDE8F087000063
:1038A000003801407047000010B586B00446012181
:1038B0008803FEF785FE01210420FEF781FE4FF408
:1038C0000070ADF8140003208DF8160018208DF854
:1038D000170005A91248FDF764FF4FF48060ADF8AA
:1038E000140004208DF8170005A90D48FDF759FFB5
:1038F00001940020ADF80800ADF80A00ADF80C0006
:10390000ADF810000820ADF80E0001A90548FFF73A
:103910005DFF01210348FFF7AEFE06B010BD0000B9
:10392000000801400038014010B586B004464FF44D
:10393000A060FEF791FC01214804FEF721FE012161
:103940000420FEF73DFE2448FFF7A2FE0420ADF858
:10395000140003208DF8160018208DF8170005A913
:103960001E48FDF71EFF0820ADF8140004208DF856
:10397000170005A91948FDF714FF01940020ADF8C0
:103980000800ADF80A00ADF80C00ADF810000C20EE
:10399000ADF80E0001A91048FFF718FF20210E48CE
:1039A000FFF760FE012240F225510B48FFF7E8FEC9
:1039B00026208DF8000000208DF801008DF802000F
:1039C00001208DF803006846FEF70EFC0121024835
:1039D000FFF751FE06B010BD004400400008014052
:1039E00010B539A001F08EFE322000F089FA20B126
:1039F00039A001F087FE012010BD3DA001F082FE3C
:103A00003EA001F07FFE322141A000F0CBFA20B1B0
:103A100042A001F077FE0220EEE747A001F072FE1F
:103A20004A48007800281ED149A001F06BFE3221DF
:103A30004CA000F0B7FA20B14EA001F063FE0320C5
:103A4000DAE754A001F05EFE57A001F05BFE1E20F5
:103A500000F002FA20B159A001F054FE0420CBE797
:103A60005DA001F04FFE61A001F04CFE322163A089
:103A700000F098FA20B165A001F044FE0820BBE7F1
:103A800069A001F03FFE6CA001F03CFE32216FA066
:103A900000F088FA20B170A001F034FE0920ABE7F5
:103AA00075A001F02FFE79A001F02CFE642000F03B
:103AB0000FF920B17AA001F025FE0A209CE77FA033
:103AC00001F020FE002097E7D7BCB1B8B8B4CEBB58
:103AD000C4A3BFE90D0A0000B8B4CEBBCAA7B0DCCE
:103AE000A3ACD7BCB1B8D6D8C6F40D0A000000000C
:103AF000B8B4CEBBB3C9B9A60D0A0000D7BCB1B8E3
:103B0000C9E8D6C3535441C4A3CABD0D0A0000007E
:103B100041542B43574D4F44453D3100C9E8D6C36E
:103B2000535441C4A3CABDCAA7B0DCA3ACD7BCB12F
:103B3000B8D6D8C6F40D0A00C9E8D6C3535441C458
:103B4000A3CABDB3C9B9A60D0A000000AC0000208D
:103B5000D7BCB1B8C8A1CFFBD7D4B6AFC1ACBDD329
:103B60000D0A000041542B43574155544F434F4ECB
:103B70004E3D3000C8A1CFFBD7D4B6AFC1ACBDD34A
:103B8000CAA7B0DCA3ACD7BCB1B8D6D8C6F40D0A6E
:103B900000000000C8A1CFFBD7D4B6AFC1ACBDD3E5
:103BA000B3C9B9A60D0A0000D7BCB1B8C1ACBDD32A
:103BB000C2B7D3C9C6F70D0A00000000C1ACBDD31F
:103BC000C2B7D3C9C6F7CAA7B0DCA3ACD7BCB1B8DB
:103BD000D6D8C6F40D0A0000C1ACBDD3C2B7D3C954
:103BE000C6F7B3C9B9A60D0A00000000D7BCB1B82A
:103BF000C9E8D6C3CDB8B4AB0D0A000041542B437D
:103C000049504D4F44453D3100000000C9E8D6C33E
:103C1000CDB8B4ABCAA7B0DCA3ACD7BCB1B8D6D8CA
:103C2000C6F40D0A00000000C9E8D6C3CDB8B4AB95
:103C3000B3C9B9A60D0A0000D7BCB1B8B9D8B1D57F
:103C4000B6E0C2B7C1ACBDD30D0A000041542B434E
:103C500049504D55583D3000B9D8B1D5B6E0C2B73E
:103C6000C1ACBDD3CAA7B0DCA3ACD7BCB1B8D6D861
:103C7000C6F40D0A00000000B9D8B1D5B6E0C2B74D
:103C8000C1ACBDD3B3C9B9A60D0A0000D7BCB1B849
:103C9000C1ACBDD3B7FECEF1C6F70D0A00000000DF
:103CA000C1ACBDD3B7FECEF1C6F7CAA7B0DCA3AC9A
:103CB000D7BCB1B8D6D8C6F40D0A0000C1ACBDD38C
:103CC000B7FECEF1C6F7B3C9B9A60D0A00000000D1
:103CD00010B5044600202E4908604FF480612D483D
:103CE000FCF75BFA2C482D4902682DA001F06CFD11
:103CF0001AE06420FDF75EFC30A12648FCF758FA74
:103D000000B115E02FA12348FCF752FA08B10120B9
:103D100010BD2EA11F48FCF74BFA08B10220F7E7AF
:103D200021462FA001F0EEFC201EA4F10104E0D1F9
:103D300000BF2CA001F0E6FC002C01DC0320E7E72B
:103D400029A001F0DFFC0020114908604FF48061D8
:103D50001048FCF722FA2CA001F036FD0CE064209C
:103D6000FDF728FC2CA10B48FCF722FA00B107E074
:103D700021461BA001F0C6FC201EA4F10104EED1D7
:103D800000BF002C01DC0420C2E70020C0E70000D7
:103D9000A80000208822002090000020BB1F0020E7
:103DA00041542B43495053544152543D22544350A3
:103DB000222C222573222C25640D0A00434F4E4EDF
:103DC00045435400434C4F5345440000414C524539
:103DD00041445920434F4E4E454354454400000052
:103DE000256420000D0A0000C1ACBDD3B7FECEF1A2
:103DF000C6F7B3C9B9A6A3ACD7BCB1B8BDF8C8EB78
:103E0000CDB8B4AB0D0A000041542B434950534583
:103E10004E440D0A000000000D0A4F4B0D0A0D0A1A
:103E20003E00000008B501210802FEF7C9FB802012
:103E3000ADF8000003208DF8020010208DF803007B
:103E400069460448FDF7ADFC80210248FDF73FFDBF
:103E500008BD00000020014010B5044600201649AE
:103E600008604FF480611548FCF797F914A217A178
:103E700019A001F0A9FC0DE04FF47A70FDF79AFB50
:103E80001BA10E48FCF794F900B107E0214619A0E8
:103E900001F038FC201EA4F10104EDD100BF074958
:103EA00015A001F02FFC15A001F02CFC002C01DC6A
:103EB000012010BD0020FCE7A8000020882200207F
:103EC000313233343536373636360000484F4E4FB0
:103ED000522032300000000041542B43574A4150D9
:103EE0003D222573222C222573220D0A000000009A
:103EF0004F4B0000256420000D0A25730D0A0000B9
:103F000010B50446002240211348FDF7E2FC4FF4AF
:103F1000FA70FDF74FFB012240210F48FDF7D9FC55
:103F20000CE06420FDF746FB0CA10E48FCF740F9BD
:103F300000B107E021460CA001F0E4FB201EA4F133
:103F40000104EED100BF09A001F0DCFB002C01DC74
:103F5000012010BD0020FCE700180140726561647B
:103F60007900000088220020256420000D0A00004E
:103F700008B501214020FEF723FB4020ADF80000EA
:103F800003208DF8020010208DF8030069460448D4
:103F9000FDF707FC012240210148FDF79AFC08BD0E
:103FA0000018014070B505460C4600201349086012
:103FB0004FF480611248FCF7F0F8294611A001F097
:103FC00003FC0CE06420FDF7F5FA10A10C48FCF7A7
:103FD000EFF800B107E021460DA001F093FB201E91
:103FE000A4F10104EED100BF0AA001F08BFB002C6C
:103FF00001DC012070BD0020FCE70000A8000020CB
:104000008822002025730D0A000000004F4B00009D
:10401000256420000D0A00002DE9F04105462C46DC
:1040200020211148FDF751FC002619E0274607F032
:104030008007802F04D180210B48FDF748FC03E066
:1040400080210948FDF741FC6006040E2021064846
:10405000FDF73DFC20210448FDF737FC701CC6B27B
:10406000082EE3DBBDE8F0810008014010B50446EE
:10407000FDF7A0FC7820FFF7CFFFFDF7BFFC002085
:10408000FFF7CAFFFDF7BAFC2046FFF7C5FFFDF7B3
:10409000B5FCFDF7A3FC10BD10B50446FDF78AFC86
:1040A0007820FFF7B9FFFDF7A9FC4020FFF7B4FF28
:1040B000FDF7A4FC2046FFF7AFFFFDF79FFCFDF7DF
:1040C0008DFC10BD0FB4084B10B504A902AA0398CB
:1040D00000F0F4F8044602A9002000F062FD20463A
:1040E00010BC5DF814FB0000A34B000837B5144664
:1040F0000846064B6A46214600F0BCF9044669466C
:10410000002000F053FD20463EBD0000AD4B0008EE
:1041100000487047E000002002E008C8121F08C1F4
:10412000002AFAD170477047002001E001C1121F38
:10413000002AFBD1704700002DE9FF5F82B000210B
:10414000DDE90430020DDDF840B0034318D044F639
:104150001050A2F2FF3242431514119801281FD0CB
:10416000A5EB0B00401C5FEA000A4FF000064E4F23
:10417000DFF83891B046504615D5CAF1000413E077
:10418000119801244AA3012801D16FEA0B0102987A
:10419000119AC0E90031C0E9024206B0BDE8F09FC3
:1041A000CBF10000DFE704460021404A491842EB0A
:1041B0000450CDE9001012E0E00707D032463B463C
:1041C00040464946FCF77AFA8046894632463B46E5
:1041D00010461946FCF772FA06460F466410002C8A
:1041E000EAD1DDE90401DDE90023BAF1000F06DAC6
:1041F000FCF764FA42464B46FCF760FA05E0FCF730
:10420000CFFA42464B46FCF7CBFA04460E46002254
:10421000284BFCF7F1FC03D84FF0FF30014607E0D4
:104220000022254B20463146FCF7A1F9FCF7CCFCD7
:10423000102409E0002C0ADB0A220023FCF753FBC0
:10424000039B30321A55641E50EA0102F2D1641CFD
:10425000039AC4F111031444119A012A03D00122D4
:1042600008430DD10AE0084304D000204FF0110BA1
:10427000119072E7A3EB0B056D1E0DE05B4504DDAD
:104280004FF0000205F1010504E003DA4FF00002EF
:10429000A5F10105002AECD002981199C0E902317C
:1042A000C0E9004579E70000000014400000F03F3D
:1042B000300000000000F0430000E03F2DE9FF4F18
:1042C0008BB09A460F460546002606E025280BD0FF
:1042D00052460D9990476D1C761C28780028F5D120
:1042E0000FB03046BDE8F08F0024A046012260499F
:1042F00000E0044315F8013F203B02FA03F00842B6
:10430000F7D128782E2817D115F8010F44F00404AE
:104310002A280ED06FF02F022878A0F13001092949
:104320000AD808EB880102EB410100EB01086D1C83
:10433000F2E757F8048B6D1C287869283ED006DC1C
:104340000028CDD063280BD0642804D136E0732830
:1043500010D075284BD052460D999047761C85E0B9
:1043600017F8040B8DF8000000208DF80100E946D5
:10437000012003E057F8049B4FF0FF3061074FF036
:10438000000401D40AE0641C44450DDA8442FADBDF
:1043900019F804100029F6D106E0641C8442FCDB05
:1043A00019F804100029F8D1264404E019F8010B8B
:1043B00052460D999047641EF8D257E001CF4FF056
:1043C0000A0B002802DA40422D2102E0210504D523
:1043D0002B218DF82410012103E0E10705D02021D5
:1043E000F7E70DF1200908910CE00021F9E701CF72
:1043F0004FF00A0BF9E75946FCF75FFA01F130027A
:1044000009F8012D0028F6D1ADEB090000F1200BD1
:10441000600701D44FF00108D84502DDA8EB0B007E
:1044200000E000208046002406E009A85246005D16
:104430000D999047641C761C08988442F5DB04E0D3
:10444000302052460D999047761CB8F10001A8F132
:104450000108F5DC05E019F8010B52460D9990476B
:10446000761CBBF10001ABF1010BF4DC6D1C34E7F1
:10447000092801002DE9FF4F95B09B468946064665
:1044800000250FE2252877D100242746F84A01218C
:10449000059400E0044316F8013F203B01FA03F0C5
:1044A0001042F7D130782A2811D06FF02F033078DE
:1044B000A0F13002092A16D8059A44F0020402EB52
:1044C000820203EB42021044761C0590EFE759F894
:1044D000042B0592002A03DA504244F4005405905C
:1044E00044F00204761C30782E2816D116F8010FFD
:1044F00044F004042A280DD06FF02F023078A0F188
:104500003003092B09D807EB870302EB4303C718D5
:10451000761CF3E759F8047B761C30786C280FD0B2
:1045200006DC4C2817D068280DD06A2814D104E086
:10453000742810D07A280FD10DE044F400140AE05A
:1045400044F4801401E044F440147278824202D1B1
:1045500004F58014761C761C307866280BD013DCAA
:10456000582877D009DC002875D04528F6D0462891
:10457000F4D047281AD19DE118E0632835D064288B
:1045800079D0652812D195E1702873D008DC6728AE
:10459000F1D069286FD06E280DD06F2806D1B5E014
:1045A00073282CD0752875D0782874D05A4617995E
:1045B00090476D1C75E1C4F30250022809D003280E
:1045C0000DD0D9F8001004280DD00D6009F10409B0
:1045D00067E1D9F80010EA17C1E90052F6E7D9F807
:1045E00000100D80F2E70D70F0E719F8041B8DF84C
:1045F000001000208DF80100EA46012003E059F880
:1046000004AB4FF0FF3061074FF0000102D40DE022
:1046100008F101018846B9420FDA8045F8DB1AF843
:1046200008100029F4D108E008F101018846814210
:10463000FADB1AF808100029F6D105985B46A0EBC2
:10464000080721463846179A00F094FA284400EBF0
:10465000080507E04DE029E10DE01AF8010B5A4684
:1046600017999047B8F10108F7D25B4621463846C2
:10467000179A13E142E00A220092C4F302524FF06B
:10468000000A022A08D059F804CB032A4FEAEC7139
:104690000AD00DE029E02AE009F1070121F0070224
:1046A000F2E802C1914609E00FFA8CFC4FEAEC7186
:1046B000042A03D14FFA8CFC4FEAEC71002907DA87
:1046C0000A460021DCF1000C61EB02012D2202E020
:1046D000220504D52B228DF80420012203E0E207F5
:1046E00001D02022F7E7904659E00A2102E010228B
:1046F0000DE010214FF0000A00910BE010224FF066
:10470000000A44F004040827009203E008224FF056
:10471000000A0092C4F30252022A05D059F804CBD1
:104720000021032A08D009E009F1070121F007025E
:10473000F2E802C1914605E01FFA8CFC042A01D17F
:104740000CF0FF0C4FF00008220728D5702806D087
:10475000009B83F0100353EA0A0305D00EE04022C9
:104760008DF80420012208E05CEA010206D0302224
:104770008DF804208DF8050002229046009B83F0FE
:10478000080353EA0A030AD15CEA010201D1620775
:1047900005D530228DF804204FF001087F1E5828DF
:1047A00004D034A003900EA802900DE036A0F9E7E3
:1047B00053466046009AFCF796F884460398825C5C
:1047C0000298401E029002705CEA0100F0D102984B
:1047D00006A9081A00F1200A600702D524F48034E3
:1047E00000E00127574502DDA7EB0A0000E00020AA
:1047F00000EB0A01009005984144401A0590E0033F
:1048000006D45B462146179A059800F0B3F9054493
:10481000002706E001A85A46C05D179990476D1C15
:104820007F1C4745F6DBE0030CD55B462146179A13
:10483000059800F09FF9054404E030205A46179986
:1048400090476D1C0099481E00900029F5DC08E097
:10485000029802995A460078491C0291179990478C
:104860006D1CBAF10001AAF1010AF1DC65E100005A
:104870000928010030313233343536373839616236
:1048800063646566000000003031323334353637FA
:1048900038394142434445460000000000F058F9D1
:1048A0000544761C307800287FF4ECAD19B028461A
:1048B000BDE8F08F620700D4062709F1070222F055
:1048C000070CFCE80223E14603F000485FEA080C0D
:1048D00002D00FF2702C0DE05FEA045C02D50FF2FB
:1048E000682C07E05FEAC47C02D00FF2602C01E084
:1048F000AFF2700C4FF0FF3823F00043CDF850C0FA
:1049000065280CD006DC452809D046281DD047284C
:104910003DD13DE0662818D067287ED138E00021DF
:10492000112F01DB112000E0781CCDE9000106A960
:104930000EA8FFF701FCDDE90F010E9A039100219B
:10494000009207F1010A04914DE04FF000400097FA
:10495000CDE9011006A90EA8FFF7EEFBDDE90F0275
:1049600003920E9B11990022DDF80CA00093049293
:1049700011B9791C00EB010AB7EB0A0004D4C0F1AD
:10498000FF3007F1010A0490AAEB0700019044E010
:10499000012F00DA01270021112F01DD112000E095
:1049A0003846CDE9000106A90EA8FFF7C5FBDDE9F1
:1049B0000F010E9A0391002104910092BA4621073B
:1049C0000CD40399514500DA8A46BAF1010F05DD8E
:1049D000009AAAF10101515C302908D0B84202DAEC
:1049E00010F1040F06DA0121CDE9011015E0AAF15A
:1049F0000101E9E7002805DC049901440491AAEBD0
:104A0000000102E0411C514500DD8A460499401A2C
:104A1000401C01904FF000400290200704D4019800
:104A2000504501DBCDF8048000208DF84F0002983E
:104A30000DF14F07B0F1004F25D02B200E900298BA
:104A40004FF0020800280CDA404202902D200E9010
:104A500007E00A210298FBF730FF3031029007F897
:104A6000011DB8F10001A8F10108F2DC029800284C
:104A7000EFD1791E0E980870307800F0200040F0D9
:104A8000450007F8020D12A8C01B00F10708149892
:104A9000007800B1012000EB0A01019801EBE07100
:104AA00005984144401A401E0590E00306D45B4639
:104AB0002146179A059800F05DF80544149800788F
:104AC00018B15A46179990476D1CE00324D55B46F0
:104AD0002146179A059800F04DF805441CE004980B
:104AE000002807DBDDE90301884203DD0098405C14
:104AF000179901E0179930205A469047049805F11C
:104B00000105401C04900198401E019004D12E2004
:104B10005A46179990476D1CBAF10001AAF1010A93
:104B2000DDDC05E017F8010B5A46179990476D1C1C
:104B3000B8F10001A8F10108F4DC5B462146179AA0
:104B40000598ABE62D0000002B00000020000000BF
:104B50002DE9F041044600251E461746880404D47A
:104B600005E039462020B0476D1C641EF9D5284663
:104B7000BDE8F0812DE9F041044600251E4690462F
:104B8000C80301D5302700E02027880404D505E0BC
:104B900041463846B0476D1C641EF9D52846BDE82D
:104BA000F0810A68531C0B60107070470A68531C30
:104BB0000B601070704700001CB5FCF747FD4FF408
:104BC000E130FEF771FE4FF4E130FEF7ADFE4FF439
:104BD000E1514FF4FA70FEF765FAFCF7DBFFFCF7E2
:104BE000A5FBFDF71FF8FCF73FFCFDF79DFDFDF76A
:104BF00071FDFCF751FBFDF759FBFDF737FBFFF7A4
:104C000011F9FFF7B5F9FCF705FFE948007828B975
:104C10001023E8A206210020FDF77CFC0B22E849C6
:104C2000E848FDF7ABFDE649E7A000F06BFDED4875
:104C3000ED49EE4BEE4ACDE90010EEA1E048FBF75E
:104C4000FFFAE84800780090E7480378E7480278E0
:104C5000E74890F90010ECA000F054FDF0E375E196
:104C6000D3480078012873D1EC480068EC49096802
:104C7000884239D0E9480068807810280CD0E7488D
:104C800000688078822803D1E6480078012803D0A4
:104C9000E5480078012827D1E0480068807830286E
:104CA00009D1DE4800688178E0A000F02BFDE9A082
:104CB00000F028FD05E0D94800688178E6A000F002
:104CC00021FDD648006800F04BFDD448006800F58F
:104CD0009670D249086008460068E349096888422E
:104CE00002D1E248CD490860E1480068E14909681D
:104CF000884271D0E0A000F005FDDD4800688078B2
:104D000020283CD1DA480068407906282FD2DFE815
:104D100000F0030A11182027DAA000F0F3FC0120AC
:104D2000C04908702AE0DCA000F0ECFC0020A0499B
:104D3000087023E0E3A000F0E5FC00209C49087027
:104D40001CE0ECA000F0DEFC00209949087015E0A2
:104D5000A5E3F2A000F0D6FC0020954908700DE014
:104D6000F9A000F0CFFC00209149087006E0FEA0F9
:104D700000F0C8FC00208E49087000BF53E0BC481A
:104D800000688078902828D1B9480068807910B1EF
:104D9000012819D100E000BFFCA000F0B3FC012005
:104DA000A14908700020FC490870FEF7BDF8FDF726
:104DB000C3FDFDF77FFD48F6A04142F21070FEF7FB
:104DC000F3F9FDF7BDFE06E0F4A000F09BFC002027
:104DD0007749087000BF26E034E0A5480068807875
:104DE000D02814D1F3A000F08DFCEB480078012806
:104DF00003D10020E849087015E0E7480078012851
:104E000011DD0020E4490870FEF78EF80BE09848A9
:104E100000688078302806D1EAA000F073FC94483E
:104E20000068FDF779F89248006800F5967090499F
:104E3000086008460068E8490968884202D1E748E6
:104E40008B490860E6480068E649096888427DD0D9
:104E5000E3480168891CE4A000F054FCE5480068C0
:104E6000FBF7B8F905462A46E2480168DC480068C5
:104E7000801CFBF7B6F948B90120DF490870DFA0B4
:104E8000E0490860E0A000F03DFCF4E2E248006880
:104E9000FBF7A0F905462A46DF480168D0480068BC
:104EA000801CFBF79EF960B90020D3490870DBA095
:104EB00000F028FCDDA0D34908600020DE4908701E
:104EC000D9E2CD480078002870D00622DB4801687E
:104ED000C3480068801CFBF784F9F0B9D8A1C0482A
:104EE0000068801CFBF78AF9D5A10020FBF786F942
:104EF0000446D4A12046FBF781F90546FBF762FA88
:104F000040B23B490870084690F90010CEA000F06E
:104F1000F9FB0120C8490870ADE20622CE480168BD
:104F2000AF480068801CFBF75CF9F0B9C4A1AC483D
:104F30000068801CFBF762F9C1A10020FBF75EF955
:104F40000446C0A12046FBF759F900E0A6E2054659
:104F5000FBF738FA2549087008460178BFA000F031
:104F6000D1FB0120B449087085E2C1480068FBF715
:104F700031F905462A46BE48016899480068801CF8
:104F8000FBF72FF998B9AEA195480068801CFBF794
:104F900035F9ABA10020FBF731F90446A9A1204661
:104FA000FBF72CF90546FBF70DFA63E19CE16CE198
:104FB000A1000020636F6E6E6563742E2E2E0000BC
:104FC000E400002000000708313131313131313146
:104FD00031313131313166617A68693A25730D0AB0
:104FE000000000001500002017000020160000201F
:104FF00014000020256868753A256868753A2568A8
:1050000068753A256868750066617A68693A25644A
:105010002C25642C25642C25640D0A0070000020CA
:105020006C000020A2000020A3000020B7A2CBCD7E
:10503000CAFDBEDD3A30782578A3ACB5A5C6ACBBB9
:10504000FACAFDBEDDCDC6CBCDD6C1B7FECEF1C608
:10505000F70D0A000D0A0000B7A2CBCDCAFDBEDDD8
:105060003A307825780D0A0074000020A70C002043
:105070006400002060000020BDD3CAD5B5BDCAFDC4
:10508000BEDD3A00434F4E4E454354B1A8CEC4B3A3
:10509000C9B9A60D0A000000C1ACBDD3D2D1BEDC97
:1050A000BEF8A3ACB2BBD6A7B3D6B5C4D0ADD2E9D7
:1050B000B0E6B1BEA3ACD7BCB1B8D6D8C6F40D0A21
:1050C00000000000C1ACBDD3D2D1BEDCBEF8A3ACA1
:1050D000B2BBBACFB8F1B5C4BFCDBBA7B6CBB1EAAE
:1050E000CAB6B7FBA3ACD7BCB1B8D6D8C6F40D0AC4
:1050F00000000000C1ACBDD3D2D1BEDCBEF8A3AC71
:10510000B7FECEF1B6CBB2BBBFC9D3C3A3ACD7BC3D
:10511000B1B8D6D8C6F40D0A00000000C1ACBDD3AA
:10512000D2D1BEDCBEF8A3ACCEDED0A7B5C4D3C30B
:10513000BBA7C3FBBBF2C3DCC2EBA3ACD7BCB1B80B
:10514000D6D8C6F40D0A0000C1ACBDD3D2D1BEDCA6
:10515000BEF8A3ACCEB4CADAC8A8A3ACD7BCB1B869
:10516000D6D8C6F40D0A0000C1ACBDD3D2D1BEDC86
:10517000BEF8A3ACCEB4D6AAD7B4CCACA3ACD7BC43
:10518000B1B8D6D8C6F40D0A00000000B6A9D4C440
:10519000B3C9B9A60D0A0000A0000020B6A9D4C466
:1051A000CAA7B0DCA3ACD7BCB1B8D6D8C6F40D0A38
:1051B0000000000050494E47B1A8CEC4BBD8B8B4D7
:1051C0000D0A0000B7FECEF1C6F7B5C8BCB630CDAB
:1051D000C6CBCD0D0A00000068000020EF000020C3
:1051E0007C00002078000020C3FCC1EE3A25730D3E
:1051F0000A0000001C000020190000204155544FF7
:105200005F4F4E0054000020D7D4B6AFBFD8D6C6EB
:10521000BFAA210D0A00000020000020D7D4B6AF9D
:10522000BFD8D6C6B9D8210D0A0000004155544F49
:105230005F4F4646000000001800002008000020D4
:10524000530000002A000000CEC2B6C8E3D0D6B595
:10525000A3BA25640D0A00000C000020CAAAB6C833
:10526000B6C8E3D0D6B5A3BA25640D0A0000000085
:1052700004000020A149087008460178A0A000F0B1
:1052800041FA0120A3490870F5E0A3480068FAF745
:10529000A1FF05462A46A0480168A0480068801C76
:1052A000FAF79FFF0028EFD1AFF26C019B4800682E
:1052B000801CFAF7A3FFAFF278010020FAF79EFFF7
:1052C0000446AFF280012046FAF798FF0546FBF747
:1052D00079F8934908700846017892A000F012FA14
:1052E00001208C490870C6E093480078012875D0E9
:1052F00092480068FAF76EFF05462A468F48016813
:1053000086480068801CFAF76CFF40B98CA08E4973
:105310000860FCF761FC8DA000F0F4F9ABE08E486A
:105320000068FAF757FF05462A468B4801687B4814
:105330000068801CFAF755FF40B988A082490860D0
:10534000FCF742FC87A000F0DDF994E08848006893
:10535000FAF740FF05462A46854801686F4800680D
:10536000801CFAF73EFF40B982A084490860FCF730
:1053700003F883A000F0C6F97DE085480068FAF7DD
:1053800029FF05462A468248016864480068801C57
:10539000FAF727FF40B97FA078490860FBF7E2FFE2
:1053A0007EA000F0AFF966E080480068FAF712FFCF
:1053B00005462A467D48016858480068801CFAF76F
:1053C00010FF60B97AA07C490860FDF7CFF9012091
:1053D0007A4908707AA000F095F94CE048E07C48E2
:1053E0000068FAF7F7FE05462A46794801684B48F7
:1053F0000068801CFAF7F5FE58B976A06E4908607F
:10540000FDF7ACF900206D49087075A000F07AF93D
:1054100031E077480068FAF7DDFE05462A46744811
:1054200001683E480068801CFAF7DBFE48B971A0AD
:1054300073490860FDF770F972A000F063F91AE093
:1054400059E074480068FAF7C5FE05462A467148D7
:10545000016832480068801CFAF7C3FE58B96EA094
:1054600067490860FDF750F96EA000F04BF902E0C3
:1054700070A000F047F92948006800F596702749A8
:105480000860084600686E490968884202D16D4884
:1054900022490860FDF70EFAFDF74EFA29E06AA0EE
:1054A00000F030F900216D48FDF7B7FE00216C488F
:1054B000FDF7B3FE00206B4908604FF480616A4835
:1054C000FAF76BFEFEF78CFA98B968A000F01AF9AB
:1054D00001206B490870FCF7C9FE00F0D3F80020EA
:1054E000604908604FF480615F48FAF756FEFCF7A8
:1054F000AFFBFFF7B5BBFFF7B2BB00001700002002
:10550000B9E2D5D5B6C8E3D0D6B5A3BA25640D0A9D
:105510000000000018000020100000207C00002087
:1055200015000020CDC1C8C0CAAAB6C8E3D0D6B500
:10553000A3BA25640D0A00001900002024000020F1
:105540004C45444F4E000000440000204C4544BFF1
:10555000AAC6F40D0A000000280000204C45444F64
:10556000464600004C4544B9D8B1D50D0A000000AC
:105570002C000020424545504F4E000048000020BE
:10558000B7E4C3F9C6F7BFAAC6F40D0A00000000CD
:1055900030000020424545504F464600B7E4C3F96D
:1055A000C6F7B9D8B1D50D0A0000000034000020BC
:1055B00052454C41594F4E004C0000201A0000202B
:1055C000BCCCB5E7C6F7BFAAC6F40D0A00000000C0
:1055D0003800002052454C41594F4646000000001B
:1055E000BCCCB5E7C6F7B9D8B1D50D0A00000000AC
:1055F0003C00002052454C4159324F4E0000000003
:1056000050000020BCCCB5E7C6F732BFAAC6F40DE7
:105610000A0000004000002052454C4159324F46DC
:1056200046000000BCCCB5E7C6F732B9D8B1D50DFD
:105630000A000000CEB4D6AAD6B8C1EE0D0A00000A
:10564000800000205F180020D0E8D2AAC1ACBDD3F2
:10565000B7FECEF1C6F70D0A0000000000080040BA
:1056600000040040A800002088220020BDA8C1A29C
:10567000544350C1ACBDD3B3C9B9A60D0A00000054
:10568000A100002010B510230EA200210846FCF74F
:1056900041FF10230DA200214620FCF73BFF102301
:1056A0000CA202210020FCF735FF10230BA20421DD
:1056B0000020FCF72FFF10230AA206210020FCF790
:1056C00029FF10BD54656D3A0000000048756D3A21
:1056D00000000000536F696C5F483A004C696768CE
:1056E000743A00004175746F3A00000010B502462C
:1056F000012000E050430B1EA1F10104E1B2F9D1F9
:1057000010BD00000FB438B505A800901248009AEB
:105710000499FEF7EBFC002000900F48FAF75AFDC1
:10572000054600BF0D48008800F040000028F9D071
:1057300000240CE00848005D0849091D088000BFEE
:105740000648008800F040000028F9D0641CAC42F4
:10575000F0D338BC5DF814FB8821002000380140EC
:1057600000BF174A128802F04002002AF9D000BF99
:10577000144A128802F04002002AF9D0012118E0F0
:105780004A1C825C0E4B1B1D1A8000BF0C4A1288FB
:1057900002F04002002AF9D04A1C825C094B1B1D12
:1057A0001A8000BF074A128802F04002002AF9D08E
:1057B000491C4378027803EB02228A42E0DA704700
:1057C00000440040003801400FB438B505A80090EF
:1057D0001248009A0499FEF789FC002000900F48B7
:1057E000FAF7F8FC054600BF0D48008800F04000BD
:1057F0000028F9D000240CE00848005D0849091D84
:10580000088000BF0648008800F040000028F9D05A
:10581000641CAC42F0D338BC5DF814FB8826002031
:10582000004400400000000000000000002F0000C5
:1058300000000700070000147F147F1400242A7F53
:105840002A120062640813230036495522500000D2
:105850000503000000001C224100000041221C0042
:105860000014083E08140008083E0808000000A0C4
:1058700060000008080808080000606000000020C0
:1058800010080402003E5149453E0000427F40009E
:10589000004261514946002141454B310018141224
:1058A0007F10002745454539003C4A4949300001F1
:1058B0007109050300364949493600064949291E40
:1058C00000003636000000005636000000081422A2
:1058D00041000014141414140000412214080002A2
:1058E0000151090600324959513E007C1211127CC7
:1058F000007F49494936003E41414122007F4141F4
:10590000221C007F49494941007F09090901003EE5
:105910004149497A007F0808087F0000417F410023
:10592000002040413F01007F08142241007F404099
:105930004040007F020C027F007F0408107F003E81
:105940004141413E007F09090906003E4151215E67
:10595000007F091929460046494949310001017F64
:105960000101003F4040403F001F2040201F003FFA
:105970004038403F006314081463000708700807AC
:1059800000615149454300007F41410000552A55BF
:105990002A55000041417F0000040201020400403A
:1059A000404040400000010204000020545454785C
:1059B000007F48444438003844444420003844447C
:1059C000487F00385454541800087E09010200181A
:1059D000A4A4A47C007F080404780000447D400057
:1059E000004080847D00007F102844000000417F3B
:1059F0004000007C04180478007C08040478003817
:105A00004444443800FC242424180018242418FC9E
:105A1000007C0804040800485454542000043F4407
:105A20004020003C4040207C001C2040201C003CCA
:105A30004030403C004428102844001CA0A0A07C1A
:105A4000004464544C441414141414140000000052
:105A5000000000000000000000000000000000F84E
:105A600000000000000000333000000000100C06B1
:105A7000100C0600000000000000000040C078404C
:105A8000C0784000043F04043F040400007088FC18
:105A900008300000001820FF211E0000F008F00070
:105AA000E018000000211C031E211E0000F00888E1
:105AB000700000001E2123241927211010160E004B
:105AC000000000000000000000000000000000E0F6
:105AD000180402000000000718204000000204180B
