:020000040800F2
:10000000D036002045010008C7220008311A000838
:10001000A1220008A9130008854400080000000080
:100020000000000000000000000000009F2B0008FE
:10003000CD1500080000000093260008412E00089E
:100040005F0100085F0100085F0100085F01000810
:100050005F0100085F0100085F0100085F01000800
:100060005F0100085F0100085F0100085F010008F0
:100070005F0100085F0100085F0100085F010008E0
:100080005F0100085F0100085F0100085F010008D0
:100090005F0100085F0100085F0100085F010008C0
:1000A0005F0100085F0100085F0100085F010008B0
:1000B0001D2F0008F5330008613400085F010008B7
:1000C0005F0100085F0100085F0100085F01000890
:1000D0005F0100085F010008C94100085F010008D6
:1000E0005F0100085F0100085F0100085F01000870
:1000F0005F0100085F0100085F0100085F01000860
:100100005F0100085F010008693500085F01000811
:100110005F0100085F010008A13600085F010008C8
:100120005F0100085F0100085F0100085F0100082F
:10013000DFF80CD000F086FD004800479957000812
:10014000D03600200648804706480047FEE7FEE715
:10015000FEE7FEE7FEE7FEE7FEE7FEE7FEE7FEE777
:10016000452E00083101000840EA01039B0703D037
:1001700009E008C9121F08C0042AFAD203E011F8E6
:10018000013B00F8013B521EF9D27047D2B201E0A8
:1001900000F8012B491EFBD270470022F6E710B58C
:1001A00013460A4604461946FFF7F0FF204610BDE5
:1001B00030B505462A460B4612F8010B13F8014BE1
:1001C00008B1A042F8D01CB1002802D06D1CF1E7A4
:1001D000284630BD421C10F8011B0029FBD1801AB3
:1001E000704710B5002200E0521C835C8C5CA34277
:1001F00001D1002BF8D1D8B2E1B2401A10BD30B510
:1002000004460020034600E05B1C934203D2E05CFE
:10021000CD5C401BF8D030BD70B50F4D00B92868DB
:10022000002412E00A4602E09E4203D0521C1378DA
:10023000002BF9D1DAB2224305D02BB124B1002131
:1002400000F8011B04E00446401C0678002EE9D1AA
:100250002860204670BD00000C0100200FB400B5DE
:100260008DB010A909900B9000914FF0FF300A90CB
:1002700000200C9005480690054807906A4609A89A
:100280000F9900F0B5FB0DB05DF814FB0D0A0008E6
:100290002B0A00082DE9FF5F1D464FF0FF3BD5E913
:1002A000014691465F464FF00008A9697F1C0198FE
:1002B0008847296A824688470028F6D1BAF1FF3F6D
:1002C0000CD024F4C064002E19DD600614D5BAF1F8
:1002D0002B0F09D0BAF12D0F0ED103E0584604B010
:1002E000BDE8F09F44F48064A9697F1C01988847A9
:1002F000761E8246002E02DDBAF1300F03D0B9F12E
:10030000000F26D032E0A969761E44F400747F1CE9
:10031000019888478246002E05DDBAF1780F06D095
:10032000BAF1580F03D0B9F1000F10D01EE0B9F1A7
:10033000000F02D0B9F1100F18D1A969761E24F46C
:1003400000747F1C019888478246102002E0082034
:1003500000E00A20814609E008FB0908A969761E29
:1003600044F400747F1C019888478246002E05DD06
:100370004946504600F027FB0028EDDAE96901986C
:100380008847A00502D46FF00100A8E7E00725D157
:10039000600613D5600502D5C8F1000000E04046B4
:1003A00029680A1D2A600968220501D5087015E030
:1003B000220701D5088011E008600FE02868011DC0
:1003C00029600068210502D580F8008006E0210739
:1003D00002D5A0F8008001E0C0F8008038467EE732
:1003E00070B5064604F084FC046805460A22002124
:1003F000304600F02BFB2C6070BDF0B480EA0102A7
:10040000D40F4200B2EB410F02D202460846114619
:100410004A0042D0C30DDDB2C1F3C752AD1A202D40
:1004200035DAC1F3160141F4000204B15242C5F1BC
:10043000200602FA06F12A411044B3EBD05F23D024
:10044000C4B1012DA0EBC35009DCF0BC4FF0004259
:1004500002EAC352DBB200F5000000F038BB4000F6
:1004600000F1807000EBC350A0F1807040EAD170C1
:10047000490009E0490841EAC071A0EBC35000F50A
:100480000000400800EBC350F0BC00F017BB614215
:10049000012202EB4101001BF6E7F0BC704781F03E
:1004A0000041AAE780F00040A7E780EA010210B50A
:1004B00002F00043400022D04A001FD0010E01EBA1
:1004C0001261C0F35600C2F3560240F4000042F439
:1004D0000002A0FB022000047F39140400D0401C5D
:1004E00050EA124001D44000491EC2B20C0604EB8F
:1004F000D010401C4008802A02D003E0002010BD2C
:1005000020F00100002900DA0020184310BD30B4AB
:1005100080EA010202F0004530F0004221F0004084
:1005200013D090B1C30DD40DC2F31601C0F3160061
:10053000E41A41F4000140F400027D34914201D3F9
:10054000641C00E04900002C02DA30BC0020704737
:100550004FF400000023914201D3891A034340085D
:100560004FEA4101F7D151B1914202D14FF0004120
:1005700005E002D24FF0010101E06FF0010103EB51
:10058000C450284430BC00F099BA2DE9FE4F804693
:1005900081EA0300C00F0C46009021F0004123F0D7
:1005A0000045B8EB0200A94105D2404621469046DD
:1005B0001C460B46024623F00040104347D0270D4F
:1005C000C7F30A00C3F30A510290401A0190402871
:1005D0006BDAC3F3130040F4801B0098924620B1FD
:1005E0000023D2EB030A63EB0B0B01985946C0F1D1
:1005F0004002504600F0B6F906460D4650465946B0
:10060000019A00F0CEF910EB08006141002487EA5E
:10061000115284EAE7731A4340D0009A62B3019AF8
:10062000012A4FEA075215DC001B61EB02014FF073
:10063000004202EA0752CDE90042001C41F5801158
:1006400032462B4600F080FA03B0BDE8F08F4046FA
:100650002146F9E7001B61EB0201001C41F5801304
:1006600000185B412018A2F5001747EB030140EA90
:10067000D570B6196D4111E06D084FEA360645EAAE
:10068000C0754FEA0752001B61EB0201001C41F5E7
:10069000801149084FEA30000019514132462B467B
:1006A00003B0BDE8F04F00F040BA009801224000CE
:1006B0000023D0EB020263EBE073009821464FEA7F
:1006C000E074B8EB000061EB0401E9E783F000435C
:1006D0005BE781F0004158E72DE9FE4F81EA030412
:1006E00004F0004421F0004100944FF0000B23F08F
:1006F000004350EA01045ED052EA03045BD0C3F326
:100700000A54C1F30A552C44A4F2F3340194A0FB1B
:100710000254C1F3130141F48011C3F3130343F4F2
:10072000801301FB024400FB034E840A970A44EA4B
:10073000815447EA8357A4FB076802958D0A05FB9D
:1007400007854FEA932C04FB0C542705029D4FEAC2
:10075000065847EA1637B5EB08056EEB070C870E0F
:10076000920E47EA811742EA8312A7FB0201B6EB19
:100770000B0164EB00042B0D43EA0C335E1844EBD1
:100780001C50DA465146E7FB0201C5F313044FEA59
:100790000B3343EA14534FEA0432019C43EA060345
:1007A000A4F10C040294009CCDE900B400F0CCF953
:1007B00003B0BDE8F08F00200146F9E72DE9F04DC8
:1007C00081EA030404F0004B21F0004514464FF089
:1007D000000A23F0004150EA050220D054EA010249
:1007E0001DD0C5F30A570246C5F31303C1F3130026
:1007F000C1F30A5640F4801543F48013A7EB0608B2
:10080000101BD64608F2FD3873EB050002D308F141
:10081000010801E092185B41B8F1000F03DA0020F3
:100820000146BDE8F08D00204FF480110646844655
:100830000EE0171B73EB050705D3121B63EB0503D3
:1008400006434CEA010C49084FEA300092185B411C
:1008500050EA0107EDD152EA030012D082EA040007
:1008600083EA0501084305D0101BAB4106D20122E3
:10087000002306E000224FF0004302E06FF0010287
:1008800053101AEB06004CEB085110EB0A0041EB39
:100890000B01BDE8F04D00F048B996230022114647
:1008A00000F015B900F0004220F00040C10DC0F387
:1008B000160040F400007F2901DA002070479629D5
:1008C00003DCC1F19601C84001E096398840002A56
:1008D000F4D04042704730B50B460146002020223C
:1008E000012409E021FA02F59D4205D303FA02F53D
:1008F000491B04FA02F52844151EA2F10102F1DC9D
:1009000030BD2DE9F05F0546002092469B468846A3
:100910000646814640241BE028464146474622467B
:1009200000F02FF853465A46C01A914110D3114691
:100930001846224600F016F82D1A67EB01084F46BC
:1009400022460120002100F00DF817EB00094E416E
:10095000201EA4F10104DFDC484631462A46434606
:10096000BDE8F09F202A04DB203A00FA02F10020C3
:1009700070479140C2F1200320FA03F319439040DD
:100980007047202A04DB203A21FA02F00021704748
:1009900021FA02F3D040C2F12002914008431946E7
:1009A0007047202A06DBCB17203A41FA02F043EACF
:1009B000E07306E041FA02F3D040C2F12002914018
:1009C0000843194670473A2800D2303820F02002F8
:1009D000412A01D3A2F13700884201D34FF0FF3002
:1009E0007047000002681144137801601846704790
:1009F000D16004495161044911620021116111461D
:100A000000F040B9E5090008710C0008426842B1E5
:100A1000016811F8013B23B1521EC0E900121846CB
:100A200070470121C160881E704742685AB1C3688F
:100A3000016843B983688B4205D0491E521CC0E946
:100A40000012002070474FF0FF3070472DE9F0474B
:100A500091460F4680460446002614F8015B2DB1EE
:100A600000F002F90068405DC007F6D12B2D02D0DE
:100A70002D2D18D0641E4A463946204600F098FABB
:100A800027B13968A14201D1C7F8008071054FF044
:100A900002040BD54042002803DD04F029F904606C
:100AA000A007BDE8F08746F48066E4E70028F8DA9E
:100AB00004F01EF904606FF00040F2E70029A8BFBF
:100AC0007047401C490008BF20F00100704710B477
:100AD000B0FA80FC00FA0CF050EA010404BF10BC2C
:100AE000704749B1CCF1200421FA04F411FA0CF159
:100AF00018BF012121430843A3EB0C01CB1D4FEA92
:100B000000614FEA102042BF002010BC704700EB8C
:100B1000C35010440029A4BF10BC7047401C4900BA
:100B200008BF20F0010010BC704710B5141E73F10F
:100B3000000408DA401C41F1000192185B411A439D
:100B400001D120F0010010BD2DE9F04D92469B46E9
:100B500011B1B1FA81F202E0B0FA80F2203290468F
:100B6000FFF700FF04460F4640EA0A0041EA0B0186
:100B700053465A46084313D0114653EA010019D090
:100B8000C8F140025046FFF7FCFE05460E465046AF
:100B900059464246FFF7E6FE084305D0012004E02F
:100BA00020463946BDE8F08D0020054346EAE07650
:100BB0002C4337430A986305E40AA0EB080000229F
:100BC000FD0A44EA47540A3002D500200146E9E70D
:100BD000010510196941DDE9084500196941BDE8C1
:100BE000F04DA2E7C1F30A52C1F3130140F2FF3303
:100BF00041F480119A4202DA00200146704740F227
:100C000033439A42A2F2334202DC5242FFF7B9BEAA
:100C1000FFF7A8BE30B5041E71F1000404DB4FF0ED
:100C20000044404264EB0101141E73F1000405DB33
:100C30001C464FF00043524263EB0403994208BF45
:100C4000904230BD064C074D06E0E06840F00103DD
:100C500094E8070098471034AC42F6D3FFF76CFADB
:100C6000587000087870000800487047B86E000897
:100C700010B50446FFF7F8FF0068005D00F00100C2
:100C800010BD00002DE9F34F8BB04FF0000801F1CB
:100C90000C000C464FF0010B46460DF1080A01907E
:100CA0006269012101989047051E2DD0252D2CD079
:100CB000216A8847C0B16269012101989047216A81
:100CC00088470028F7D1411E62690198904700E0EB
:100CD000761CA1690B988847216A88470028F7D1BC
:100CE000E1690B988847DBE7A1690B9888470746BD
:100CF000A84201D1761CD3E7E1690B9888477F1C95
:100D000002D1B8F1000F6FD046E1002762693D467D
:100D10003946019890472A2804D162690121019837
:100D200090470125DFF8849262690121019890477C
:100D3000A0F130010A290AD24F45E5DC07EB870113
:100D400000EB4107303FDFD445F01005ECE7E90642
:100D500001D46FF000476C280AD04C2814D06828C2
:100D600015D06A280DD074281CD07A281AD01DE01E
:100D700062690121019890476C2802D045F0040572
:100D800014E045F002050DE045F020050AE0626937
:100D9000012101989047682802D045F0080505E038
:100DA00045F400656269012101989047C4E9015743
:100DB00065283DD019DC58287AD00CDC452837D07E
:100DC00004DC252826D0412831D131E046282FD017
:100DD00047282CD12CE05B2877D0612828D06328C5
:100DE0007CD0642823D15AE0D0E06F2848D008DCBA
:100DF00066281DD067281BD0692821D06E2816D1FF
:100E000027E0702845D0732868D0752847D0782807
:100E10000DD14DE0A1690B988847054625283FF480
:100E200069AFE1690B9888476D1C3FF46AAFB3E086
:100E300023466A466FF001000B99AFF300809EE0F5
:100E400045F040006060A80723464FF0000236D40A
:100E50003EE0E8077FF447AF2068011D216000688D
:100E6000290501D506701BE7290701D5068017E77C
:100E7000A90703D5F117C0E9006111E706600FE784
:100E800045F040006060A80723464FF0080216D4E2
:100E90001EE040F60E0125EA0100606016E045F014
:100EA00040006060A80723464FF00A0207D40FE015
:100EB00045F040006060A80708D5234610226FF077
:100EC00001000B99AFF3008059E007E023461022A0
:100ED0006FF001000B99FFF7DDF950E04FF00009CA
:100EE0004F464B46632802D05B2806D040E0E80618
:100EF00001D40120A06001273AE062690121019834
:100F000090475E2805D14FF0010962694946019872
:100F10009047216939B900210A46534643F82120F8
:100F2000491C0829FADBB0B3216969B9C11700EB84
:100F3000D16253110AEB830122F01F02821A0120B1
:100F40000B68904003430B60626901210198904750
:100F50005D28E8D1B9F1000F09D00020514651F8C1
:100F60002020D24341F82020401C0828F7DB02ABA8
:100F7000224600976FF001000B99AFF30080002824
:100F80000CDA401C08D1BBF1000F05D04FF0FF3048
:100F90000DB0BDE8F08FFFE74046F9E7E90701D162
:100FA00008F1010806444FF0000B79E6CCCCCC0CDC
:100FB0002DE9F05F82460078002715468B460AF13E
:100FC0000104B946302801D09DB113E014F8010B9B
:100FD0000127782803D0582801D045B10AE00DB187
:100FE000102D07D10027102514F8010B02E0082569
:100FF00000E00A250026B0460EE005FB080005FBD0
:1010000006F1012701EB10461FFA80F8B6F5803F84
:1010100000D3B94614F8010B2946FFF7D4FC002889
:10102000EBDABBF1000F05D00FB1641E00E05446AF
:10103000CBF80040B9F1000F06D003F059FE0221B1
:101040000160C81EBDE8F09F48EA0640FAE721B1FA
:10105000826842F00102826003E0826822F00102AD
:101060008260704710B504461248844208D10121BD
:10107000401501F04BFB0021601501F047FB17E024
:101080000D48844208D10121001501F03FFB0021E9
:10109000201501F03BFB0BE00848844208D10121F8
:1010A000C80301F033FB00214FF4004001F02EFB98
:1010B00010BD00000024014000280140003C014018
:1010C000014600208A6802F004020AB1012000E013
:1010D000002070470146C86C80B27047024600206D
:1010E00013680B400BB1012000E00020704701465F
:1010F00000208A6802F008020AB1012000E0002006
:101100007047000030B502460020002350680F4CA5
:1011100020400D790C6844EA052420435060906813
:101120000B4C2040D1E902542C434D7944EA45044C
:1011300020439060D06A20F470000C7C641EE4B2FE
:10114000234340EA0350D06230BD0000FFFEF0FFB1
:10115000FDF7F1FFF0B504460D4600200021092DF2
:1011600011DDE068A5F10A0606EB4607072606FA38
:1011700007F18843A5F10A0606EB460603FA06F1D5
:101180000843E0600CE0206905EB4507072606FAF6
:1011900007F1884305EB450603FA06F10843206191
:1011A000072A0FDA606B561E06EB86071F2606FA23
:1011B00007F18843561E06EB860605FA06F108433A
:1011C000606322E00D2A0FDA206BD61F06EB86073C
:1011D0001F2606FA07F18843D61F06EB860605FA96
:1011E00006F10843206310E0E06AA2F10D0606EB69
:1011F00086071F2606FA07F18843A2F10D0606EBC3
:10120000860605FA06F10843E062F0BD816841F008
:1012100008018160704721B1826842F4A0028260B7
:1012200003E0826822F4A00282607047816841F086
:10123000040181607047000000B585B00121C8033A
:1012400001F054FA0121C80301F060FA00214FF4C3
:10125000004001F05BFA1648FFF704FF0020009001
:101260008DF804008DF805004FF4602002900020F6
:10127000039001208DF8100069460D48FFF742FFEA
:1012800001210B48FFF7E3FE0948FFF7BFFF00BF4E
:101290000748FFF72CFF0028FAD10548FFF7C6FFE3
:1012A00000BF0348FFF70CFF0028FAD105B000BDCE
:1012B000003C014000B587B001214FF4017001F0FE
:1012C00015FA0220ADF8180000208DF81B0003204D
:1012D0008DF81A0006A91A4800F0A2FA4FF400404F
:1012E00001F0D8F91748FFF7BDFE00208DF809007E
:1012F00004904FF4602003900020019001208DF8AD
:10130000140000208DF8080001A90E48FFF7FAFE2E
:1013100001210C48FFF79BFE0A48FFF777FF00BF4B
:101320000848FFF7E4FE0028FAD10648FFF77EFFE1
:1013300000BF0448FFF7C4FE0028FAD107B000BD83
:10134000000801400024014008B50121082001F0F7
:10135000CDF94FF40070ADF8000010208DF80300B7
:1013600003208DF802006946044800F059FA4FF452
:101370000071024800F0E8FA08BD0000000C0140CE
:1013800010B54FF40071024800F0DEFA10BD000005
:10139000000C014010B54FF40071024800F0D6FA7D
:1013A00010BD0000000C01407047000070B50546FC
:1013B0000C462246294615480068801CFEF7D4FEDC
:1013C0002046E11704EB1161090A104A12681170F6
:1013D000E11704EB11610912A4EB01210B4A126819
:1013E0005170002109480268A01C11540748006888
:1013F00000F59670054908600846006804490968C8
:10140000884202D103480149086070BD9C00002059
:10141000A40000209018002010B50024184800688F
:1014200020F07060164908600846006840F00060CF
:10143000086004E0601CC4B2012000F0EFF8402115
:101440000F4800F078FA012801D1462CF2DB462C37
:1014500001DB012010BD002404E0601CC4B20120A7
:1014600000F0DCF84021064800F065FA08B9462C87
:10147000F3DB462C01DB0220ECE70020EAE700006A
:101480000008014008B50121042001F02FF9402097
:10149000ADF8000003208DF8020010208DF8030045
:1014A0006946044800F0BCF900F070F8FFF7B4FF9B
:1014B00008BD00000008014010B5002404E0601CD5
:1014C000C4B2012000F0AAF84021104800F033FA1D
:1014D000012801D1282CF2DB002404E0601CC4B2F6
:1014E000012000F09BF84021084800F024FA08B9D8
:1014F0003C2CF3DB232000F091F84021034800F05E
:101500001AFA08B1012010BD0020FCE700080140D4
:1015100070B50024002506E06006040EFFF7CCFF3E
:101520000443681CC5B2082DF6DB204670BD7CB5AF
:1015300005460E4600F02AF8FFF76EFF08BB0024B0
:1015400005E0FFF7E5FF0DF80400601CC4B2052CB0
:10155000F7DB9DF800009DF8011008449DF802108B
:1015600008449DF8031008449DF80410884206D1F1
:101570009DF8000030709DF80200287003E0012003
:101580007CBD0220FCE70020FAE7000010B50E4801
:10159000006820F070600C4908600846006840F060
:1015A0004070086000224021074800F0D1F91E2059
:1015B00000F00EF801224021034800F0C9F91E2076
:1015C00000F02CF810BD000000080140704700003A
:1015D0000146114A12884A434FF0E0235A61002223
:1015E0009A611A46126942F001021A6100BF4FF077
:1015F000E022106900F001021AB100F48032002AE2
:10160000F5D04FF0E022126922F001024FF0E02302
:101610001A6100229A617047800000200146114A39
:1016200012784A434FF0E0235A6100229A611A4629
:10163000126942F001021A6100BF4FF0E022106906
:1016400000F001021AB100F48032002AF5D04FF008
:10165000E022126922F001024FF0E0231A61002219
:101660009A6170477E00002010B56FF0040001F011
:10167000D3FB0A4800680A49B0FBF1F00949087039
:101680000846007800EB4001C1EBC0104FF6FF7137
:1016900001EAC0000449088010BD0000E4000020F9
:1016A00000127A007E0000208000002030B5044641
:1016B00004254FF4302000F06FF80546042D17D1B3
:1016C0000C48006940F002000A490861084644617C
:1016D000006940F0400008614FF4302000F05CF8F1
:1016E00005460448006941F6FD710840014908615A
:1016F000284630BD0020024004200B49C96801F093
:10170000010109B101200EE00749C96801F0040197
:1017100009B1022007E00449C96801F0100109B1CC
:10172000032000E0042070470020024003480069C5
:1017300040F080000149086170470000002002402D
:1017400070B504460D460426F00200F025F8064662
:10175000042E11D10948006940F0010007490861D1
:101760002580F00200F018F806460448006941F6AA
:10177000FE71084001490861304670BD00200240FA
:1017800002480349486003484860704723016745A1
:1017900000200240AB89EFCD00B502460423FFF7DD
:1017A000ABFF034603E0FFF7A7FF0346521E012BE2
:1017B00001D1002AF7D102B90523184600BD000067
:1017C00008B50121802000F091FF4FF40070ADF8C2
:1017D000000014208DF8030003208DF802006946F4
:1017E000044800F01DF84FF40071024800F0AEF814
:1017F00008BD0000001C014010B54FF40071024804
:1018000000F0A4F810BD0000001C014010B54FF41A
:101810000071024800F098F810BD0000001C014063
:101820002DE9F04102460025002600200023002477
:10183000002791F803C00CF00F0591F803C00CF0DD
:10184000100CBCF1000F03D091F802C04CEA050562
:1018500091F800C0BCF1000F31D0146800202BE0DB
:101860004FF0010C0CFA00F3B1F800C00CEA0306CB
:101870009E4220D183004FF00F0C0CFA03F7BC43BB
:1018800005FA03FC4CEA040491F803C0BCF1280FEC
:1018900006D14FF0010C0CFA00FCC2F814C00AE0AB
:1018A00091F803C0BCF1480F05D14FF0010C0CFAC0
:1018B00000FCC2F810C0401C0828D1D31460B1F855
:1018C00000C0BCF1FF0F34DD546800202EE000F1B1
:1018D000080C4FF0010808FA0CF3B1F800C00CEA4C
:1018E00003069E4221D183004FF00F0C0CFA03F740
:1018F000BC4305FA03FC4CEA040491F803C0BCF1B4
:10190000280F05D100F1080C08FA0CF8C2F8148071
:1019100091F803C0BCF1480F07D100F1080C4FF05B
:10192000010808FA0CF8C2F81080401C0828CED331
:101930005460BDE8F0810246002093680B400BB173
:10194000012000E00020704741617047016170474D
:101950000AB1016100E041617047000010B5044622
:101960000723012221460948FFF7F4FB012107481C
:10197000FFF751FC00BF02210448FFF7AFFB00282E
:10198000F9D00248FFF7A6FB10BD0000003C014063
:1019900010B504460723012221460948FFF7DAFB68
:1019A00001210748FFF737FC00BF02210448FFF779
:1019B00095FB0028F9D00248FFF78CFB10BD000012
:1019C000002401402DE9F05F80460C4600250027E9
:1019D00008E04046FFF7DCFF05440120FFF7F8FD73
:1019E000781CC7B2A742F4DBB5FBF4F94846FEF712
:1019F00054FF064631460A48FEF751FD8346094921
:101A0000FEF785FD82460849FEF74FFD8146FEF749
:101A100049FF064908600846008880B2BDE8F09F8B
:101A200000C07F4500C04D450000C842DC000020DA
:101A30007047000010B520210748FFF787FF80217D
:101A40000548FFF783FF80210348FFF77DFF202132
:101A50000148FFF779FF10BD0008014010B52021B3
:101A60000548FFF773FF80210348FFF76DFF8021D2
:101A70000148FFF76BFF10BD0008014010B52021A1
:101A80000348FFF763FF20210148FFF75DFF10BD0A
:101A90000008014010B580213548FEF77EFB35A2D5
:101AA00037A1334803F0FEF83148FEF793FB354980
:101AB000086080213448FEF770FB34A230A1324820
:101AC00003F0F0F83048FEF785FB324908608021CA
:101AD0003148FEF762FB2DA229A12F4803F0E2F85E
:101AE0002D48FEF777FB2D49086080212C48FEF732
:101AF00054FB2CA222A12A4803F0D4F840F25B70D8
:101B00002B4908600846264902682AA004F0F6FC22
:101B100017492DA004F0F2FC1B492FA004F0EEFCA5
:101B20001D4931A004F0EAFC1D4A33A1344803F0FA
:101B3000B9F81023324A0021084600F081FD1C4804
:101B400030A102682E4803F0ADF810232C4A022180
:101B5000002000F075FD0C4A2CA1294803F0A2F8E2
:101B60001023274A0421002000F06AFD10BD000068
:101B70006C1E00206D7174745F7465737430310075
:101B800025730000A8000020EC1E0020657370384B
:101B900032363600AC0000206C1F0020B000002060
:101BA000EC1F0020382E3133342E36382E383900D1
:101BB000B4000020B7FE20CEF120C6F7A3BA2573EB
:101BC0003A25640D0A000000BFCDBBA7B6CB49443F
:101BD000A3BA25730D0A0000D3C320BBA720C3FB03
:101BE000A3BA25730D0A0000C3DC20202020C2EB1D
:101BF000A3BA25730D0A000049503A25730000006E
:101C000098210020506F72743A25640055736572F4
:101C10003A25730008B50121082000F067FD4FF454
:101C20008070ADF8000003208DF8020010208DF8C0
:101C3000030069460448FFF7F3FD4FF48071024842
:101C4000FFF782FE08BD0000000C014010B54FF404
:101C500080710248FFF778FE10BD0000000C0140C3
:101C600010B54FF480710248FFF770FE10BD000000
:101C7000000C014008B50121082000F037FD2020AC
:101C8000ADF8000003208DF8020010208DF803004D
:101C900069460448FFF7C4FD20210248FFF756FEBD
:101CA00008BD0000000C014010B520210148FFF7DD
:101CB0004DFE10BD000C014010B520210148FFF77A
:101CC00043FE10BD000C014070B50024002508E063
:101CD0000620FFF743FE04440520FFF779FC681C4B
:101CE000C5B20A2DF4DB0A20B4FBF0F4B4F57A6F28
:101CF00001D94FF47A642820B4FBF0F0C0F16400FD
:101D0000C0B270BD08B50121802000F0EFFC4FF497
:101D10008070ADF8000000208DF80300694603488C
:101D2000FFF77EFDFFF788FA08BD0000001C0140A8
:101D300010B516481649086008460068154908603D
:101D40001548164908601648164908600846006894
:101D50001549086015481649086016481649086074
:101D6000084600681549086015481649086000F0E3
:101D700037F8002114A000F047FA00201549087038
:101D8000154908701549087010BD00002001002099
:101D90008400002088000020AC0B00208C00002074
:101DA000D80C002090000020940000206417002030
:101DB00098000020901800209C000020A000002027
:101DC000401D0020A4000020746F7069635F6F6E77
:101DD00065000000C7000020C6000020C4000020ED
:101DE00070B501207A4908600A207A4908607A486B
:101DF0000068001D794909680844801C7849096811
:101E0000084478490860734800680968441810203D
:101E10007549087000BF2046E11704EB5161C911F4
:101E2000A4EBC115E11704EB5161CC11002C01DDCD
:101E300045F080056C48664A12688554644800681D
:101E4000401C63490860002CE5DC0021664A6048BC
:101E50000068115404215E480068401C11544D2153
:101E60005B480068801C1154512159480068C01C0F
:101E70001154542156480068001D115454480068FC
:101E8000401D1154042152480068801D1154C22184
:101E90004F480068C01D115400214D4800680830AB
:101EA000115464214A480068093011544A490868AD
:101EB000C11700EB1161C1F307224B4B444909687C
:101EC0000A315A5444490868C11700EB11610912DC
:101ED000A0EB0121CAB23E4909680B315A541A4697
:101EE0003B4909680C3150183B490A683F49FEF7E5
:101EF0003BF93A490868C11700EB1161C1F30722A9
:101F0000334909680C31344B1B681944364B5A5419
:101F100032490868C11700EB11610912A0EB0121D9
:101F2000CAB22B4909680D312B4B1B6819442E4B43
:101F30005A54274909680E31274A126811441A4633
:101F4000881826490A682A49FEF70EF924490868C4
:101F5000C11700EB1161C1F307221D4909680E3159
:101F60001D4B1B6819441D4B1B6819441E4B5A54CA
:101F70001B490868C11700EB11610912A0EB012190
:101F8000CAB2134909680F31134B1B681944134B2C
:101F90001B681944144B5A540D49096810310E4AF4
:101FA000126811440D4A126811441A4688180C49E7
:101FB0000A681049FEF7D8F805480068054A126813
:101FC0001044084A12688118074802F0CBF870BD27
:101FD000B8000020BC000020A8000020AC000020B9
:101FE000B0000020C00000206C2000206C1E0020EB
:101FF000EC1E00206C1F00202DE9F04FD1B0804670
:1020000098F8011098F8000001EB0020509008F1BA
:1020100002070020814605460646834601244FF00C
:10202000010A00BF0BF1010B00BF281917F800903F
:1020300009F07F0000FB0A664FEACA1A641C09F027
:1020400080000028F1D13019054431195098401A08
:1020500050900124A246002650980028E2D159460B
:1020600020A004F04BFA00200546064600BF00BF42
:102070004C9030E000BF281917F8009009F07F005D
:1020800000FB0A664FEACA1A641C09F080000028A7
:10209000F1D1601C2844395C6019385C01EB0020E8
:1020A000801C4F904F98301A4E9029194F98084431
:1020B0004D904D98391801A84E9AFEF755F801A891
:1020C0004E99FFF773F9301905440124A246002602
:1020D0004C98401C4C904C985845CBDB51B0BDE817
:1020E000F08F0000B1BEB4CEBDD3CAD5C1CB25643C
:1020F000B8F6CDC6CBCDCAFDBEDD0D0A000000008E
:1021000010B5C02004490870002048700221024820
:1021100002F028F810BD00006C2000202DE9F047E7
:102120000546884616460120334908602846FEF7D2
:1021300051F8801C31490860314806600846006843
:102140002F490968441830202E49087000BF2046E6
:10215000E11704EB5161C911A4EBC117E11704EBBE
:102160005161CC11002C01DD47F080072548224A3F
:102170001268875420480068401C1F490860002CE2
:10218000E5DC2846FEF726F8C0F307211D4A1A4869
:10219000006811542846FEF71DF8C1B2194A1648C6
:1021A0000068401C11542846FEF714F88146154A71
:1021B00011490968891C50184A462946FDF7D4FF81
:1021C0002846FEF707F80C490968891C08440D49A0
:1021D00000EB0109324641464846FDF7C5FF064877
:1021E0000068064A12681044054A126881180548BA
:1021F00001F0B8FFBDE8F087B8000020BC00002067
:10220000C00000206C20002070B504460D4602205E
:102210001F4908601F4908602046FDF7DBFFC01C0E
:102220001D49086082201D4908701A4800781A4923
:102230000978084419494870002088700120C87046
:102240002046FDF7C7FF000A144908712046FDF734
:10225000C1FF124948712046FDF7BCFF06463246D1
:1022600021460E48801DFDF77FFF2046FDF7B2FF97
:10227000801D0A490D5406480068064A1268104439
:10228000054A12688118054801F06CFF70BD000016
:10229000B8000020BC000020C00000206C200020FE
:1022A00070470146002209B90020704706E008780F
:1022B000303802EB820300EB4302491C0878002807
:1022C000F5D11046F1E7704770B5002100230F22C9
:1022D000C47804B3154C246804F4E064C4F5E064E5
:1022E000210AC1F10403CA40447804FA03F1847856
:1022F0001440214309010E4C0678A155047804F0DE
:102300001F050124AC4005786D11AD0005F1E025F5
:10231000C5F8004109E0047804F01F050124AC4031
:10232000044D0678761145F8264070BD0CED00E0AE
:1023300000E400E080E100E002490143024A11604C
:10234000704700000000FA050CED00E070B50024B5
:1023500018E004F1B000002100F08FF900210846D8
:1023600000F08BF90021102000F087F9002505E02E
:102370000121002000F081F9681CC5B2802DF7DB37
:10238000601CC4B2082CE4DB70BD2DE9F0470546A3
:102390000E46174698463C461AE004F1B00000216C
:1023A00000F06BF90021084600F067F900211020C9
:1023B00000F063F9A94607E00121002000F05DF973
:1023C00009F1010000F0FF09B145F5DB601CC4B262
:1023D0004445E2DBBDE8F08708B50121042000F0A8
:1023E00085F9A020ADF8000010208DF8030003202F
:1023F0008DF8020069463C48FFF712FAA0213A48DE
:10240000FFF7A4FA4FF44870FFF7E2F80021AE207E
:1024100000F033F90021084600F02FF900211020C8
:1024200000F02BF90021402000F027F90021B02016
:1024300000F023F90021812000F01FF90021FF2086
:1024400000F01BF90021A12000F017F90021A620BF
:1024500000F013F90021A82000F00FF900213F201F
:1024600000F00BF90021C82000F007F90021D3206B
:1024700000F003F90021084600F0FFF80021D52004
:1024800000F0FBF80021802000F0F7F80021D820B0
:1024900000F0F3F80021052000F0EFF80021D9202A
:1024A00000F0EBF80021F12000F0E7F80021DA203D
:1024B00000F0E3F80021122000F0DFF80021DB201B
:1024C00000F0DBF80021302000F0D7F800218D204B
:1024D00000F0D3F80021142000F0CFF80021AF2045
:1024E00000F0CBF808BD00000008014070B50446BC
:1024F0000D4605F1B000002100F0BFF8102141EABF
:102500001410002100F0B9F804F00F00002100F0D1
:10251000B4F870BD2DE9F04707460E46904699463F
:1025200000250024A8F12000C5B27F2F02DD00277E
:10253000B01CC6B2B9F1100F24D131463846FFF7AE
:10254000D5FF002408E004EB0511194A505C012175
:1025500000F093F8601CC4B2082CF4DB701CC1B20C
:102560003846FFF7C3FF002409E004EB05110831EA
:102570000F4A505C012100F080F8601CC4B2082CA6
:10258000F3DB12E031463846FFF7B0FF00240AE0E3
:1025900005EB4501074A02EB4101085D012100F00E
:1025A0006CF8601CC4B2062CF2DBBDE8F0870000BA
:1025B000446800081C6600082DE9FF5F0746914645
:1025C0001E460E9D4FF0000A002435E0301B401ED1
:1025D000C1B20A2003F086FFB9FBF0F00A21B0FB7C
:1025E000F1F201FB1208BAF1000F14D1701EA042E3
:1025F00011DDB8F1000F0CD1AB4605EBDB714910D2
:1026000001FB0471C8B22B4620220199FFF782FF1B
:1026100010E04FF0010AAB4605EBDB71491001FBFE
:102620000471C8B208F13001CAB22B460199FFF714
:1026300071FF00BF601CC4B2B442C7DBBDE8FF9F9E
:102640002DE9F04104460F461546984600260FE056
:10265000AA5D434639462046FFF75CFF04F10800B7
:10266000C4B2782C02DD0024B81CC7B2701CC6B2FC
:10267000A85D0028ECD1BDE8F08170B504460D4698
:102680001DB1E0B202F0F8FA02E0E0B202F0DEFAC8
:1026900070BD704701460020034A506820F4404056
:1026A00008435060704700000010024029B1064AFC
:1026B000D2690243044BDA6104E0034AD2698243DF
:1026C000014BDA61704700000010024029B1064A50
:1026D00012690243044B1A6104E0034A12698243FF
:1026E000014B1A61704700000010024029B1064AF0
:1026F00092690243044B9A6104E0034A926982435F
:10270000014B9A61704700000010024029B1064A4F
:10271000D2680243044BDA6004E0034AD268824381
:10272000014BDA60704700000010024030B5002114
:102730000022002400232D4D6D6805F00C0121B10D
:10274000042905D0082923D105E0294D056022E0A0
:10275000274D05601FE0254D6D6805F47012234D6F
:102760006D6805F48034022505EB92421CB9214DB9
:10277000554305600BE01D4D6D6805F400351DB136
:102780001C4D5543056002E0194D5543056002E0BC
:10279000174D056000BF00BF144D6D6805F0F001D6
:1027A0000909154D6B5C0568DD4045600F4D6D688E
:1027B00005F4E061090A104D6B5C4568DD408560F9
:1027C0000A4D6D6805F46051C90A0B4D6B5C456894
:1027D000DD40C560054D6D6805F44041890B074D2E
:1027E0006B5CC568B5FBF3F5056130BD00100240B8
:1027F00000127A0000093D00F800002008010020C6
:1028000008B501210802FFF771FF1020ADF80000A4
:1028100014208DF8030003208DF802006946044857
:10282000FEF7FEFF10210248FFF790F808BD0000F8
:102830000020014010B510210148FFF787F810BDB6
:102840000020014010B510210148FFF77DF810BDB0
:102850000020014008B501211020FFF747FF0820A4
:10286000ADF8000010208DF8030003208DF8020061
:1028700069460448FEF7D4FF08210248FFF764F8D0
:1028800008BD00000010014010B508210148FFF705
:102890005BF810BD0010014010B508210148FFF79A
:1028A00055F810BD0010014070B504460D46082CC7
:1028B0004DD2DFE804F0040D161F28313A430E21F3
:1028C0002748FFF741F801212548FFF73FF83FE08F
:1028D0000C212348FFF738F803212148FFF736F889
:1028E00036E00D211E48FFF72FF802211C48FFF7A4
:1028F0002DF82DE009211A48FFF726F8062118487F
:10290000FFF724F824E00B211548FFF71DF80421F8
:102910001348FFF71BF81BE003211148FFF714F8D9
:102920000C210F48FFF712F812E007210C48FFF7BF
:102930000BF808210A48FFF709F809E006210848C2
:10294000FFF702F809210648FFF700F800E000BF92
:1029500000BF2846FEF73CFE00F07EF870BD000088
:102960000014014008B501212020FFF7BFFE102010
:102970008DF8030003208DF802000120ADF800005F
:1029800069461448FEF74CFF0220ADF80000694686
:102990001048FEF745FF0420ADF8000069460D48D9
:1029A000FEF73EFF0820ADF8000069460948FEF733
:1029B00037FF01210748FEF7C7FF02210548FEF750
:1029C000C3FF04210348FEF7BFFF08210148FEF7BB
:1029D000BBFF08BD0014014070B505460C46164605
:1029E00004EB8400C0EB84204FF6FF7202EA800102
:1029F0003246284600F002F870BD00002DE9F04193
:102A000004460D46164600271FE0012C0BD1114845
:102A10000078401C0F4908700846007807280DDD33
:102A2000002008700AE00B48007810B90820094916
:102A3000087008480078401E06490870314605486D
:102A40000078FFF731FF781C87B2AF42DDDBBDE8CD
:102A5000F0810000E000002010B50F210148FEF7D2
:102A600073FF10BD0014014030B503460C461546F7
:102A7000002207E0184600F008F824F812009B1C1A
:102A8000501C82B2AA42F5DB30BD0146088870476F
:102A90002DE9F05F80468A461746B8F1006F02D3F1
:102AA0003348804501D3BDE8F09FFEF769FEA8F1E9
:102AB000006B4FEADB25CBF34909C9F58064A742D7
:102AC00000DC3C464DE04FF0006101EBC5204A14AC
:102AD0002849FFF7C9FF00260BE009EB060025494E
:102AE00031F810004FF6FF71884200D003E0701CEF
:102AF00086B2A642F1DB00BFA6421BDA4FF00061AE
:102B000001EBC520FEF7D2FD002608E03AF81600DA
:102B100006EB0901174A22F81100701C86B2A64282
:102B2000F4DB4FF0006101EBC5204A14114900F0BD
:102B300023F804E022465146404600F01DF8A74223
:102B400000D10FE06D1C4FF000090AEB440AA044CD
:102B5000381B87B2B7F5806F02DD4FF4806400E068
:102B60003C46B0E700BFFEF7E1FD00BF9BE7000079
:102B700000000808D02A00202DE9F04105460E4645
:102B80001746002407E036F814102846FEF7D8FD53
:102B9000AD1C601C84B2BC42F5DBBDE8F08170471F
:102BA00010B5ECB000206A906B90689069906690C8
:102BB000679064906590802143A8FDF7EEFA4FF48A
:102BC000807103A8FDF7E9FA00206390204890F98E
:102BD0000030204890F900201FA16AA802F062F896
:102BE0001F4803781F4802781BA168A802F05AF812
:102BF0001D4803781D48027817A166A802F052F814
:102C00001B4803781B48027813A164A802F04AF815
:102C100066A864A968AB6AAACDE90010164943A862
:102C200002F040F803AB43AA0221012001F05EFA52
:102C300012480078012808D103A8FDF7CBFA044612
:102C4000224603A90EA0FFF769FA6CB010BD000080
:102C5000190000201800002025643A2564000000B7
:102C60001D0000201C0000201B0000201A00002076
:102C70001F0000201E000020606F0008C50000201B
:102C800066615F6D7367000010B5ADF5067D4FF4AA
:102C9000807145A8FDF781FA4FF4807105A8FDF712
:102CA0007CFA002085901648006816490968164A83
:102CB0001268164B1B68CDE90132CDE903101448A8
:102CC000006800901348036813481449026845A837
:102CD00001F0E8FF05AB45AA0121084601F006FA1C
:102CE0000F480078012808D105A8FDF773FA0446BB
:102CF000224605A90BA0FFF711FA0DF5067D10BDC0
:102D000078000020700000206C0000206800002087
:102D1000740000206400002060000020A46F000800
:102D2000C5000020646174615F6D7367000000007E
:102D300010B500F001F810BD0CB500200190009016
:102D40003348006840F480303149086000BF3048A3
:102D5000006800F4003000900198401C0190009839
:102D600018B90198B0F5A06FF1D12948006800F4B6
:102D7000003010B10120009001E000200090009888
:102D8000012843D12348006840F010002149086021
:102D90000846006820F0030008600846006840F01C
:102DA000020008601A4840681949486008464068AF
:102DB00048600846406840F48060486008464068C3
:102DC00020F47C1048600846406840F4E8104860F1
:102DD0000846006840F08070086000BF0C4800683A
:102DE00000F000700028F9D00948406820F0030086
:102DF000074948600846406840F00200486000BF4C
:102E00000348406800F00C000828F9D10CBD000010
:102E10000010024000200240042808D14FF0E021B9
:102E2000096941F004014FF0E022116107E04FF021
:102E3000E021096921F004014FF0E022116170479F
:102E40007047000010B51348006840F001001149B8
:102E5000086008464068104908400E494860084626
:102E600000680E4908400B4908600846006820F4D5
:102E7000802008600846406820F4FE0048604FF457
:102E80001F008860FFF754FF4FF00060044908609E
:102E900010BD0000001002400000FFF8FFFFF6FE2A
:102EA00008ED00E01FB54FF4A060FFF745FA0121DF
:102EB0000846FFF7FBFB4FF0804000F0ABFF44F605
:102EC0001F60ADF8080042F6DF60ADF80400002096
:102ED000ADF80600ADF80A0001A94FF0804001F0FE
:102EE000B3F80121880700F085FF01221146900701
:102EF00001F09EF80121880700F07FFF1C208DF86B
:102F0000000002208DF8010001208DF802008DF8EC
:102F100003006846FFF7D8F91FBD000070B5D4B0B4
:102F2000002400250121880701F071F800287DD0D8
:102F3000FEF7CAFEB049087052A953A8FEF7F7FA87
:102F40000A210120FEF73EFDAC4908709DF84C01B6
:102F50000A2190FBF1F03030C0B28DF844019DF8A9
:102F60004C0190FBF1F201FB12003030C0B28DF841
:102F7000450100208DF846019DF8480190FBF1F0D5
:102F80003030C0B28DF840019DF8480190FBF1F25D
:102F900001FB12003030C0B28DF8410100208DF8E5
:102FA0004201342142A8FDF7F8F84FF4807102A8DD
:102FB000FDF7F3F800204F9051A991A003F09EFA7D
:102FC00050A993A003F09AFA50A8FFF76AF9944920
:102FD000087051A8FFF765F940B292490870084699
:102FE00090F9001090A003F089FA8D48017892A022
:102FF00003F084FA94480078002877D08848007855
:1030000092490978884204DC91A093490860FEF750
:10301000C1F98348007891490978884204DB90A07F
:1030200091490860FFF738FC7D4800E0E2E0007855
:103030008649097888420FDD794800788749097800
:10304000884209DA89A084490860FEF799F989A0C5
:1030500085490860FFF718FC724890F9000088491C
:103060000978884205DC87A088490860FEF724FEBD
:1030700016E06C4890F9000085490978884205DB24
:1030800084A086490860FEF7C1FB09E084A07F495F
:103090000860FEF709FE84A080490860FEF7ACFBDB
:1030A0005548007882490978884205DC81A0834927
:1030B0000860FEF7D5FD34E04F4800788049097874
:1030C000884214DB7F48007858BB7F48007840BBBB
:1030D000012203211046FFF77FFC7A480078401C4C
:1030E000784908700120784908701AE058E077A004
:1030F00072490860FEF7AAFD72480078012810D1D5
:103100007148007801280CD1012203210020FFF72B
:1031100063FC6C480078401E6A49087000206A49C8
:103120000870364800786B490978884204DC6AA048
:103130006C490860FFF786FB304800786A490978D7
:10314000884204DB69A067490860FFF773FBFFF75B
:103150009BFD33480078642848DC284800783049D3
:103160000978CDE900102F4890F900302248027804
:10317000614942A801F096FD02AB42AA002101205C
:1031800000F0B4FF5D48007801282FD102A8FDF7B8
:1031900021F80646324602A959A0FEF7BFFF25E0F6
:1031A0001F480078642821DC144800781C490978FD
:1031B000CDE900101B4890F900300F4802784E49C5
:1031C00042A801F06FFD02AB42AA0021012000F0ED
:1031D0008DFF4A480078012808D102A8FCF7FAFFC1
:1031E0000646324602A946A0FEF798FF012188074D
:1031F00000F000FE54B070BD02000020030000206B
:10320000D7AABBBBC7B0CEC2B6C83A25730D0A0059
:10321000D7AABBBBC7B0CAAAB6C83A25730D0A0065
:103220000100002000000020D7AABBBBBAF3CEC229
:10323000B6C83A25640D0A00D7AABBBBBAF3CAAA1E
:10324000B6C83A25640D0A00220000201C000020A8
:10325000424545504F4E0000680000201D000020F0
:1032600052454C41594F4E006C000020424545509C
:103270004F46460052454C41594F4646000000001B
:10328000180000204C45444F4E0000006000002014
:103290001900002046414E534F4E0000740000209C
:1032A0004C45444F4646000046414E534F4646006B
:1032B0001E0000204C4544324F4E000064000020A8
:1032C0001F000020CA000020CB0000204C454432E3
:1032D0004F4646001A00002052454C4159324F4E8D
:1032E00000000000700000201B00002052454C41EF
:1032F00059324F464600000008700008C500002003
:10330000246470001FB54FF4A060FFF715F8012189
:103310000220FFF7CBF9184800F07CFD44F61F604F
:10332000ADF8080041F61F40ADF804000020ADF8EC
:103330000600ADF80A0001A90F4800F085FE012142
:103340000D4800F057FD012211460B4800F070FEB9
:103350000121094800F051FD1D208DF800000120D9
:103360008DF8010000208DF8020001208DF8030087
:103370006846FEF7A9FF1FBD000400401FB54FF4CB
:10338000A060FEF7D9FF01210220FFF78FF918484E
:1033900000F040FD4EF65F20ADF8080048F69F4073
:1033A000ADF804000020ADF80600ADF80A0001A950
:1033B0000F4800F049FE01210D4800F01BFD0122DD
:1033C00011460B4800F034FE0121094800F015FDBC
:1033D0001D208DF8000002208DF8010001208DF8DD
:1033E00002008DF803006846FEF76EFF1FBD000067
:1033F0000004004010B50121164800F008FE38B363
:1034000015480078062819D2DFE800F003060B0CF7
:103410000D10FEF775FE11E0FFF774FFFEF770FE6A
:103420000CE000BF00BFFEF76BFE07E000200B4979
:1034300008700021074800F0E0FC00BF00BF06480C
:103440000078401C044908700121024800F0D2FCB9
:1034500010BD000000040040C4000020C500002092
:1034600010B501211D4800F0D2FD002834D01C48C1
:103470001C4902681C480068801CFCF775FE18484F
:103480000088000A1849096808701548007816492C
:10349000096848701448006800F596701249086081
:1034A0000846006811490968884202D110480E494F
:1034B000086000200A49086000210E4800F0C1FDA4
:1034C0000021064800F099FC0021044800F0B9FDF5
:1034D0000121024800F08EFC10BD000000080040F1
:1034E000D4000020D0220020840000208C00002086
:1034F00020010020000400407FB505460C464FF433
:10350000A060FEF719FF01210420FFF7CFF8ADF806
:103510000850ADF804400020ADF80600ADF80A00F0
:1035200001A9104800F090FD01210E4800F062FC56
:10353000012211460B4800F07BFD0021094800F0F4
:103540005CFC1E208DF8000001208DF80100002099
:103550008DF8020001208DF803006846FEF7B4FEE6
:103560007FBD00000008004000B587B001211B4866
:1035700000F044FD00282BD01948007828B31948E2
:10358000007810B31848007818490978184A12785A
:10359000184B1B78CDE90232CDE9041016480078AB
:1035A00016490978CDE900101548037815480278C6
:1035B00015A11B4801F076FB19491AA002F09EFFE5
:1035C000212217491A48FFF763FA002004490870BE
:1035D0000121024800F00EFC07B000BD000C0040C5
:1035E00020000020220000201B0000201A000020E4
:1035F0001F0000201E0000201D0000201C000020D5
:10360000190000201800002025643A25643A25643A
:103610003A25643A25643A25643A25643A256400DB
:10362000AC21002077726974653A25730D0A000099
:10363000000007087FB505460C464FF4A060FEF772
:103640007BFE01210820FFF731F8ADF80850ADF8F6
:1036500004400020ADF80600ADF80A0001A90F48AB
:1036600000F0F2FC01210D4800F0C4FB01221146DC
:103670000A4800F0DDFC0121084800F0BEFB3220C2
:103680008DF8000001208DF801008DF802008DF802
:1036900003006846FEF718FE7FBD0000000C0040E6
:1036A00008B50121F74800F0B2FC00287ED0F649A9
:1036B0000878C11700EB91718910A0EB810131B13D
:1036C000012974D0022973D0032972D187E2EE4810
:1036D0000078401CEC490870EC48007800284BD179
:1036E000FEF734FEE9480078401CE849087002F013
:1036F000C5FE102002230090E54890F9002000212B
:103700002320FEF759FF102002230090E1480278A1
:1037100000216420FEF750FF102002230090DE48B5
:10372000027819463720FEF747FF10200223009049
:10373000DA48027804213220FEF73EFFD8480078AC
:1037400001280CD106231A4650212D20FEF71DFE1C
:103750001023D4A206212D20FEF772FF68E0062375
:103760001A4650212D20FEF710FE1023CEA206216E
:103770002D20FEF765FF5BE002F080FE0020CB49C4
:10378000086051E0102002230090C14890F9002009
:1037900000212320FEF710FF102002230090BD48D7
:1037A000027800216420FEF707FF03E0BFE245E056
:1037B0002FE113E2102002230090B7480278194647
:1037C0003720FEF7F9FE102002230090B34802785C
:1037D00004213220FEF7F0FEB148007801280BD119
:1037E00006231A4650212D20FEF7CFFD1023ADA24F
:1037F00006212D20FEF724FFA948007858B906239A
:103800001A4650212D20FEF7C0FD1023A6A2062146
:103810002D20FEF715FF40F6C410FDF7D9FEA34892
:103820000068401CA1490860A04800680328A9DB83
:1038300000209E4908609549087073E2924800781C
:10384000401C9149087091480078002866D1FEF725
:103850007DFD102396A200210846FEF7F1FE1023FD
:1038600095A202210020FEF7EBFE102394A2042172
:103870000020FEF7E5FE102393A206210020FEF7AC
:10388000DFFE93A194480068FCF7ABFC30B910232D
:1038900084A200212320FEF7D3FE05E0102382A29C
:1038A00000212320FEF7CCFE8CA18E480068FCF797
:1038B00098FC30B910237BA202213720FEF7C0FE0E
:1038C00005E0102378A202213720FEF7B9FE86A179
:1038D00088480068FCF785FC30B9102371A20421E8
:1038E0003720FEF7ADFE05E010236FA2042137203C
:1038F000FEF7A6FE80A182480068FCF772FC30B992
:10390000102368A206213220FEF79AFE7BE01023E6
:1039100065A206213220FEF793FE74E0102364A214
:1039200000210846FEF78CFE102363A2022100202E
:10393000FEF786FE102362A204210020FEF780FE1F
:10394000102361A206210020FEF77AFE00205749CD
:10395000086054E05EA160480068FCF742FC30B9A2
:10396000102350A200212320FEF76AFE05E0102359
:103970004DA200212320FEF763FE58A1594800689C
:10398000FCF72FFC30B9102346A202213720FEF7A6
:1039900057FE05E0102344A202213720FEF750FE17
:1039A00051A154480068FCF71CFC30B910233DA21B
:1039B00004213720FEF744FE05E010233AA204213B
:1039C0003720FEF73DFE4CA14D480068FCF709FC8E
:1039D00030B9102333A206213220FEF731FE05E074
:1039E000102331A206213220FEF72AFE40F6C41031
:1039F000FDF7EEFD2D480068401C2C4908602B485F
:103A000000680328A6DB0020284908601F490870C9
:103A100088E11D480078401C1B4908701B4800784D
:103A200068BBFEF793FC102336A200210846FEF780
:103A300007FE102335A202210020FEF701FE35A16A
:103A400036480068FCF7CDFB30B9102315A20021E1
:103A50002D20FEF7F5FD05E0102313A200212D20F7
:103A6000FEF7EEFD2EA130480068FCF7BAFB38B92E
:103A700010230CA202212520FEF7E2FDA9E05DE063
:103A800054E0000000100040C9000020C8000020E1
:103A900000000020010000200300002002000020A0
:103AA000220000204F4E00004F464600CC00002070
:103AB0004C45443A0000000052454C41593A000040
:103AC00052454C4159323A00424545503A000000B7
:103AD0004C45444F4E0000006000002052454C41D0
:103AE000594F4E006C00002052454C4159324F4E08
:103AF0000000000070000020424545504F4E00007D
:103B0000680000204C4544323A00000046414E3ADD
:103B1000000000004C4544324F4E0000640000207D
:103B200046414E534F4E0000740000201023AFF268
:103B3000880202212520FEF783FD4AE01023AFF220
:103B40003C0200210846FEF77BFD1023AFF2440241
:103B500002210020FEF774FD00207549086034E062
:103B6000AFF2500173480068FCF73BFB38B91023F3
:103B7000AFF2D00200212D20FEF762FD06E01023F7
:103B8000AFF2DC0200212D20FEF75AFDAFF27001EA
:103B900069480068FCF725FB38B91023AFF2FC0236
:103BA00002212520FEF74CFD06E01023AFF208129B
:103BB00002212520FEF744FD40F6C410FDF708FD64
:103BC0005B480068401C5A4908605948006803284F
:103BD000C6DB00205649086058490870A2E05848E2
:103BE0000078401C564908705448007800287DD160
:103BF000FEF7ACFB102353A200210846FEF720FD80
:103C0000102351A200210F20FEF71AFD102350A20D
:103C100000214B20FEF714FD1020032300904E4896
:103C2000027800212F20FEF7C7FC1020032300900C
:103C30004A48027800216920FEF7BEFC102348A202
:103C400002210020FEF7FCFC10233FA202210F20DE
:103C5000FEF7F6FC10233EA202214B20FEF7F0FCFB
:103C60001020032300903F48027802212F20FEF706
:103C7000A3FC1020032300903B4802780221692016
:103C8000FEF79AFC102339A204210020FEF7D8FC8D
:103C900010232DA204210F20FEF7D2FC10232CA20A
:103CA00004214B20FEF7CCFC102003230090304869
:103CB000027804212F20FEF77FFC102003230090C0
:103CC0002C48027804216920FEF776FC10232AA2F2
:103CD00006210020FEF7B4FC10231BA206210F20B2
:103CE000FEF7AEFC10231AA2062100E014E04B20E0
:103CF000FEF7A6FC1020032300902048027806213E
:103D00002F20FEF759FC1020032300901C48027856
:103D100006216920FEF750FC00200549086007498C
:103D2000087000BF00BF0121164800F063F808BD0D
:103D3000CC0000206400002074000020C800002097
:103D4000C9000020540000006D696E3A00000000B8
:103D50006D61783A00000000180000201900002072
:103D6000480000001C0000201D0000204C00000046
:103D70001E0000201F000020530000001A00002039
:103D80001B000020001000407FB505460C464FF494
:103D9000A060FEF7D1FA01211020FEF787FCADF8F4
:103DA0000850ADF804400020ADF80600ADF80A0058
:103DB00001A90F4800F048F901210D4800F01AF858
:103DC000012211460A4800F033F90121084800F0A9
:103DD00014F836208DF8000001208DF801008DF8D0
:103DE00002008DF803006846FEF76EFA7FBD000002
:103DF00000100040CA430282704721B1028842F09D
:103E00000102028004E002884FF6FE731A4002802D
:103E10007047000010B504466848844208D101216B
:103E2000C014FEF773FC0021E014FEF76FFCC4E041
:103E3000B4F1804F08D101210846FEF747FC00216C
:103E40000120FEF743FCB8E05D48844208D101211F
:103E50000220FEF73BFC00210220FEF737FCACE01D
:103E60005848844208D101210420FEF72FFC00218C
:103E70000420FEF72BFCA0E05348844208D1012126
:103E80000820FEF723FC00210820FEF71FFC94E029
:103E90004E48844208D101211020FEF717FC002172
:103EA0001020FEF713FC88E04948844208D1012124
:103EB0002020FEF70BFC00212020FEF707FC7CE011
:103EC0004448844208D101214014FEF71FFC002120
:103ED0006014FEF71BFC70E03F48844209D10121C9
:103EE000C804FEF713FC00214FF40020FEF70EFC7F
:103EF00063E03A48844209D101210805FEF706FC37
:103F000000214FF48010FEF701FC56E03448844253
:103F100009D101214805FEF7F9FB00214FF40010FB
:103F2000FEF7F4FB49E02F48844208D101214020EC
:103F3000FEF7CCFB00214020FEF7C8FB3DE02A48FD
:103F4000844208D101218020FEF7C0FB002180209F
:103F5000FEF7BCFB31E02548844208D101218015E1
:103F6000FEF7B4FB0021A015FEF7B0FB25E02048CA
:103F7000844209D101210804FEF7C8FB00214FF457
:103F80008030FEF7C3FB18E01A48844209D10121B2
:103F90004804FEF7BBFB00214FF40030FEF7B6FBF0
:103FA0000BE01548844208D101218804FEF7AEFBDE
:103FB00000214FF48020FEF7A9FB10BD002C01402A
:103FC0000004004000080040000C004000100040C9
:103FD0000014004000340140004C014000500140FA
:103FE0000054014000180040001C00400020004028
:103FF00000400140004401400048014002460020CA
:10400000138A0B400BB1012000E00020704730B54F
:104010000246002000230024158A05EA0103958941
:1040200005EA010413B10CB1012000E0002030BD0D
:104030001AB183890B43838102E083898B43838197
:104040007047818470470000002202881D4B98420F
:104050000ED01D4B98420BD0B0F1804F08D01B4BB7
:10406000984205D01A4B984202D01A4B984204D17C
:104070004FF68F731A404B881A43174B984207D05C
:10408000164B984204D04FF6FF431A40CB881A4390
:1040900002808B8883850B8803850A4B98420BD05E
:1040A000094B984208D00E4B984205D00D4B9842D0
:1040B00002D00D4B984201D10B7A038601238382F3
:1040C00070470000002C0140003401400004004013
:1040D00000080040000C00400010004000140040A8
:1040E0000040014000440140004801402DE9F04FEC
:1040F00085B004460D4616461F460FF22C080FF2F7
:1041000038090FF2400A0FF2480B2346424611A12C
:104110003846CDE9036BCDE9015ACDF8009000F0A7
:10412000C1FD05B0BDE8F08F7B224465766963650B
:104130006E616D65223A00002C2273746174757390
:10414000223A2200222C226D7367223A5B00000083
:104150005D7D000025732564257325642573257313
:104160002573000070B505460C46224629461348C3
:104170000068801CFBF7F8FF2046E11704EB116193
:10418000090A0E4A12681170E11704EB1161091255
:10419000A4EB0121094A126851700848006800F533
:1041A0009670064908600846006805490968884213
:1041B00002D104480149086070BD00009000002051
:1041C00098000020D80C002010B540F22551184866
:1041D00000F09CF858B31748007880B91448001DC7
:1041E000008820B31248001D00881349134A126842
:1041F000885412480068401C1049086017E00C48B9
:10420000001D00880C490D4A126888540B4800684C
:1042100020B901210A48FFF7F0FD03E0002108481A
:10422000FFF70FFF05480068401C0449086010BDF7
:1042300000440040C5000020D0220020D40000200F
:104240000008004001F40072B2F5007F00D100BF09
:10425000CA430280704721B1828942F400528281B0
:1042600004E082894DF6FF731A4082817047000096
:1042700010B504462048844209D101218803FEF785
:1042800045FA00214FF48040FEF740FA32E01B4827
:10429000844209D101214804FEF718FA00214FF4A5
:1042A0000030FEF713FA25E01548844209D10121B8
:1042B0008804FEF70BFA00214FF48020FEF706FA7F
:1042C00018E01048844209D10121C804FEF7FEF924
:1042D00000214FF40020FEF7F9F90BE00A48844270
:1042E00008D101210805FEF7F1F900214FF48010F3
:1042F000FEF7ECF910BD000000380140004400401A
:1043000000480040004C00400050004070B502469C
:10431000002400230025002040F66A16B14200D197
:1043200000BFC1F3421501F01F03012606FA03F393
:10433000012D02D19689334006E0022D02D1168A62
:10434000334001E0968A33400C12012606FA04F449
:104350001688344013B10CB1012000E0002070BD7C
:10436000F0B50346002400260025002040F66A1719
:10437000B94200D100BF1846C1F3421401F01F0634
:10438000012707FA06F5012C01D10C3004E0022CBC
:1043900001D1103000E014301AB107682F430760D4
:1043A00002E00768AF430760F0BD00002DE9F04769
:1043B00086B005460E460024A24600BFA14600274F
:1043C000B08900B100BF2F462C8A4CF6FF70044024
:1043D000F08804432C82AC894EF6F3100440B08878
:1043E00031890843718908430443AC81AC8A4FF694
:1043F000FF400440B0890443AC8201A8FEF796F95F
:104400001F48874202D1DDF810A001E0DDF80CA0C2
:10441000A88900F4004040B10AEBCA0000EB0A1082
:1044200031684900B0FBF1F807E00AEBCA0000EB85
:104430000A1031688900B0FBF1F86420B8FBF0F095
:1044400004012009642101FB1089A88900F40040BF
:1044500040B1322000EBC900B0FBF1F000F00700E2
:10446000044308E0322000EB09106421B0FBF1F0B6
:1044700000F00F0004432C8106B0BDE8F087000077
:10448000003801407047000010B586B00446012195
:104490008803FEF72BF901210420FEF727F94FF4DA
:1044A0000070ADF8140003208DF8160018208DF868
:1044B000170005A91248FDF7B3F94FF48060ADF875
:1044C000140004208DF8170005A90D48FDF7A8F980
:1044D00001940020ADF80800ADF80A00ADF80C001A
:1044E000ADF810000820ADF80E0001A90548FFF74F
:1044F0005DFF01210348FFF7AEFE06B010BD0000CE
:10450000000801400038014010B586B004464FF461
:10451000A060FDF711FF01214804FEF7C7F8012153
:104520000420FEF7E3F82448FFF7A2FE0420ADF8CC
:10453000140003208DF8160018208DF8170005A927
:104540001E48FDF76DF90820ADF8140004208DF821
:10455000170005A91948FDF763F901940020ADF88B
:104560000800ADF80A00ADF80C00ADF810000C2002
:10457000ADF80E0001A91048FFF718FF20210E48E2
:10458000FFF760FE012240F225510B48FFF7E8FEDD
:1045900026208DF8000000208DF801008DF8020023
:1045A00001208DF803006846FDF78EFE01210248C8
:1045B000FFF751FE06B010BD004400400008014066
:1045C00010B539A001F09AFF322000F089FA20B12D
:1045D00039A001F093FF012010BD3DA001F08EFF36
:1045E0003EA001F08BFF322141A000F0CBFA20B1B8
:1045F00042A001F083FF0220EEE747A001F07EFF1A
:104600004A48007800281ED149A001F077FF3221E6
:104610004CA000F0B7FA20B14EA001F06FFF0320CC
:10462000DAE754A001F06AFF57A001F067FF1E20EF
:1046300000F002FA20B159A001F060FF0420CBE79E
:104640005DA001F05BFF61A001F058FF322163A083
:1046500000F098FA20B165A001F050FF0820BBE7F8
:1046600069A001F04BFF6CA001F048FF32216FA060
:1046700000F088FA20B170A001F040FF0920ABE7FC
:1046800075A001F03BFF79A001F038FF642000F035
:104690000FF920B17AA001F031FF0A209CE77FA03A
:1046A00001F02CFF002097E7D7BCB1B8B8B4CEBB5F
:1046B000C4A3BFE90D0A0000B8B4CEBBCAA7B0DCE2
:1046C000A3ACD7BCB1B8D6D8C6F40D0A0000000020
:1046D000B8B4CEBBB3C9B9A60D0A0000D7BCB1B8F7
:1046E000C9E8D6C3535441C4A3CABD0D0A00000093
:1046F00041542B43574D4F44453D3100C9E8D6C383
:10470000535441C4A3CABDCAA7B0DCA3ACD7BCB143
:10471000B8D6D8C6F40D0A00C9E8D6C3535441C46C
:10472000A3CABDB3C9B9A60D0A000000D800002075
:10473000D7BCB1B8C8A1CFFBD7D4B6AFC1ACBDD33D
:104740000D0A000041542B43574155544F434F4EDF
:104750004E3D3000C8A1CFFBD7D4B6AFC1ACBDD35E
:10476000CAA7B0DCA3ACD7BCB1B8D6D8C6F40D0A82
:1047700000000000C8A1CFFBD7D4B6AFC1ACBDD3F9
:10478000B3C9B9A60D0A0000D7BCB1B8C1ACBDD33E
:10479000C2B7D3C9C6F70D0A00000000C1ACBDD333
:1047A000C2B7D3C9C6F7CAA7B0DCA3ACD7BCB1B8EF
:1047B000D6D8C6F40D0A0000C1ACBDD3C2B7D3C968
:1047C000C6F7B3C9B9A60D0A00000000D7BCB1B83E
:1047D000C9E8D6C3CDB8B4AB0D0A000041542B4391
:1047E00049504D4F44453D3100000000C9E8D6C353
:1047F000CDB8B4ABCAA7B0DCA3ACD7BCB1B8D6D8DF
:10480000C6F40D0A00000000C9E8D6C3CDB8B4ABA9
:10481000B3C9B9A60D0A0000D7BCB1B8B9D8B1D593
:10482000B6E0C2B7C1ACBDD30D0A000041542B4362
:1048300049504D55583D3000B9D8B1D5B6E0C2B752
:10484000C1ACBDD3CAA7B0DCA3ACD7BCB1B8D6D875
:10485000C6F40D0A00000000B9D8B1D5B6E0C2B761
:10486000C1ACBDD3B3C9B9A60D0A0000D7BCB1B85D
:10487000C1ACBDD3B7FECEF1C6F70D0A00000000F3
:10488000C1ACBDD3B7FECEF1C6F7CAA7B0DCA3ACAE
:10489000D7BCB1B8D6D8C6F40D0A0000C1ACBDD3A0
:1048A000B7FECEF1C6F7B3C9B9A60D0A00000000E5
:1048B00010B5044600202E4908604FF480612D4851
:1048C000FBF76BFC2C482D4902682DA001F078FE07
:1048D0001AE06420FCF77CFE30A12648FBF768FC58
:1048E00000B115E02FA12348FBF762FC08B10120BD
:1048F00010BD2EA11F48FBF75BFC08B10220F7E7B3
:1049000021462FA001F0FAFD201EA4F10104E0D100
:1049100000BF2CA001F0F2FD002C01DC0320E7E732
:1049200029A001F0EBFD0020114908604FF48061DF
:104930001048FBF732FC2CA001F042FE0CE0642092
:10494000FCF746FE2CA10B48FBF732FC00B107E058
:1049500021461BA001F0D2FD201EA4F10104EED1DE
:1049600000BF002C01DC0420C2E70020C0E70000EB
:10497000D4000020D0220020B4000020EC1F002032
:1049800041542B43495053544152543D22544350B7
:10499000222C222573222C25640D0A00434F4E4EF3
:1049A00045435400434C4F5345440000414C52454D
:1049B00041445920434F4E4E454354454400000066
:1049C000256420000D0A0000C1ACBDD3B7FECEF1B6
:1049D000C6F7B3C9B9A6A3ACD7BCB1B8BDF8C8EB8C
:1049E000CDB8B4AB0D0A000041542B434950534598
:1049F0004E440D0A000000000D0A4F4B0D0A0D0A2F
:104A00003E00000008B501210802FDF76FFE80207E
:104A1000ADF8000003208DF8020010208DF803008F
:104A200069460448FCF7FCFE80210248FCF78EFF33
:104A300008BD00000020014010B5044600201649C2
:104A400008604FF480611548FBF7A7FB14A217A17B
:104A500019A001F0B5FD0DE04FF47A70FCF7B8FD38
:104A60001BA10E48FBF7A4FB00B107E0214619A0EB
:104A700001F044FD201EA4F10104EDD100BF07495F
:104A800015A001F03BFD15A001F038FD002C01DC64
:104A9000012010BD0020FCE7D4000020D02200201F
:104AA000313233343536373636360000484F4E4FC4
:104AB000522032300000000041542B43574A4150ED
:104AC0003D222573222C222573220D0A00000000AE
:104AD0004F4B0000256420000D0A25730D0A0000CD
:104AE00010B50446002240211348FCF731FF4FF473
:104AF000FA70FCF76DFD012240210F48FCF728FFFA
:104B00000CE06420FCF764FD0CA10E48FBF750FBA1
:104B100000B107E021460CA001F0F0FC201EA4F13A
:104B20000104EED100BF09A001F0E8FC002C01DC7B
:104B3000012010BD0020FCE700180140726561648F
:104B400079000000D0220020256420000D0A00001A
:104B500008B501214020FDF7C9FD4020ADF8000057
:104B600003208DF8020010208DF8030069460448E8
:104B7000FCF756FE012240210148FCF7E9FE08BD82
:104B80000018014070B505460C4600201349086026
:104B90004FF480611248FBF700FB294611A001F099
:104BA0000FFD0CE06420FCF713FD10A10C48FBF78F
:104BB000FFFA00B107E021460DA001F09FFC201E86
:104BC000A4F10104EED100BF0AA001F097FC002C73
:104BD00001DC012070BD0020FCE70000D4000020B3
:104BE000D022002025730D0A000000004F4B00006A
:104BF000256420000D0A00002DE9F04105462C46F1
:104C000020211148FCF7A0FE002619E0274607F0F6
:104C10008007802F04D180210B48FCF797FE03E02A
:104C200080210948FCF790FE6006040E202106480A
:104C3000FCF78CFE20210448FCF786FE701CC6B2EF
:104C4000082EE3DBBDE8F0810008014010B5044602
:104C5000FCF7F0FE7820FFF7CFFFFCF70FFF0020F6
:104C6000FFF7CAFFFCF70AFF2046FFF7C5FFFCF776
:104C700005FFFCF7F3FE10BD10B50446FCF7DAFEA5
:104C80007820FFF7B9FFFCF7F9FE4020FFF7B4FFEB
:104C9000FCF7F4FE2046FFF7AFFFFCF7EFFEFCF752
:104CA000DDFE10BD0FB4084B10B504A902AA03988D
:104CB00000F0F4F8044602A9002000F062FD20464E
:104CC00010BC5DF814FB00008357000837B514468C
:104CD0000846064B6A46214600F0BCF90446694680
:104CE000002000F053FD20463EBD00008D57000817
:104CF000004870471001002002E008C8121F08C1D8
:104D0000002AFAD170477047002001E001C1121F4C
:104D1000002AFBD1704700002DE9FF5F82B000211F
:104D2000DDE90430020DDDF840B0034318D044F64D
:104D30001050A2F2FF3242431514119801281FD0DF
:104D4000A5EB0B00401C5FEA000A4FF000064E4F37
:104D5000DFF83891B046504615D5CAF1000413E08B
:104D6000119801244AA3012801D16FEA0B0102988E
:104D7000119AC0E90031C0E9024206B0BDE8F09FD7
:104D8000CBF10000DFE704460021404A491842EB1E
:104D90000450CDE9001012E0E00707D032463B4650
:104DA00040464946FBF798FC8046894632463B46DA
:104DB00010461946FBF790FC06460F466410002C7F
:104DC000EAD1DDE90401DDE90023BAF1000F06DADA
:104DD000FBF782FC42464B46FBF77EFC05E0FBF707
:104DE000EDFC42464B46FBF7E9FC04460E4600222A
:104DF000284BFBF70FFF03D84FF0FF30014607E0C9
:104E00000022254B20463146FBF7BFFBFBF7EAFEAD
:104E1000102409E0002C0ADB0A220023FBF771FDB5
:104E2000039B30321A55641E50EA0102F2D1641C11
:104E3000039AC4F111031444119A012A03D00122E8
:104E400008430DD10AE0084304D000204FF0110BB5
:104E5000119072E7A3EB0B056D1E0DE05B4504DDC1
:104E60004FF0000205F1010504E003DA4FF0000203
:104E7000A5F10105002AECD002981199C0E9023190
:104E8000C0E9004579E70000000014400000F03F51
:104E9000300000000000F0430000E03F2DE9FF4F2C
:104EA0008BB09A460F460546002606E025280BD013
:104EB00052460D9990476D1C761C28780028F5D134
:104EC0000FB03046BDE8F08F0024A04601226049B3
:104ED00000E0044315F8013F203B02FA03F00842CA
:104EE000F7D128782E2817D115F8010F44F00404C3
:104EF0002A280ED06FF02F022878A0F1300109295E
:104F00000AD808EB880102EB410100EB01086D1C97
:104F1000F2E757F8048B6D1C287869283ED006DC30
:104F20000028CDD063280BD0642804D136E0732844
:104F300010D075284BD052460D999047761C85E0CD
:104F400017F8040B8DF8000000208DF80100E946E9
:104F5000012003E057F8049B4FF0FF3061074FF04A
:104F6000000401D40AE0641C44450DDA8442FADBF3
:104F700019F804100029F6D106E0641C8442FCDB19
:104F800019F804100029F8D1264404E019F8010B9F
:104F900052460D999047641EF8D257E001CF4FF06A
:104FA0000A0B002802DA40422D2102E0210504D537
:104FB0002B218DF82410012103E0E10705D02021E9
:104FC000F7E70DF1200908910CE00021F9E701CF86
:104FD0004FF00A0BF9E75946FBF77DFC01F130026F
:104FE00009F8012D0028F6D1ADEB090000F1200BE6
:104FF000600701D44FF00108D84502DDA8EB0B0093
:1050000000E000208046002406E009A85246005D2A
:105010000D999047641C761C08988442F5DB04E0E7
:10502000302052460D999047761CB8F10001A8F146
:105030000108F5DC05E019F8010B52460D9990477F
:10504000761CBBF10001ABF1010BF4DC6D1C34E705
:10505000092801002DE9FF4F95B09B468946064679
:1050600000250FE2252877D100242746F84A0121A0
:10507000059400E0044316F8013F203B01FA03F0D9
:105080001042F7D130782A2811D06FF02F033078F2
:10509000A0F13002092A16D8059A44F0020402EB66
:1050A000820203EB42021044761C0590EFE759F8A8
:1050B000042B0592002A03DA504244F40054059070
:1050C00044F00204761C30782E2816D116F8010F11
:1050D00044F004042A280DD06FF02F023078A0F19C
:1050E0003003092B09D807EB870302EB4303C718EA
:1050F000761CF3E759F8047B761C30786C280FD0C7
:1051000006DC4C2817D068280DD06A2814D104E09A
:10511000742810D07A280FD10DE044F400140AE06E
:1051200044F4801401E044F440147278824202D1C5
:1051300004F58014761C761C307866280BD013DCBE
:10514000582877D009DC002875D04528F6D04628A5
:10515000F4D047281AD19DE118E0632835D064289F
:1051600079D0652812D195E1702873D008DC6728C2
:10517000F1D069286FD06E280DD06F2806D1B5E028
:1051800073282CD0752875D0782874D05A46179972
:1051900090476D1C75E1C4F30250022809D0032822
:1051A0000DD0D9F8001004280DD00D6009F10409C4
:1051B00067E1D9F80010EA17C1E90052F6E7D9F81B
:1051C00000100D80F2E70D70F0E719F8041B8DF860
:1051D000001000208DF80100EA46012003E059F894
:1051E00004AB4FF0FF3061074FF0000102D40DE037
:1051F00008F101018846B9420FDA8045F8DB1AF858
:1052000008100029F4D108E008F101018846814224
:10521000FADB1AF808100029F6D105985B46A0EBD6
:10522000080721463846179A00F094FA284400EB04
:10523000080507E04DE029E10DE01AF8010B5A4698
:1052400017999047B8F10108F7D25B4621463846D6
:10525000179A13E142E00A220092C4F302524FF07F
:10526000000A022A08D059F804CB032A4FEAEC714D
:105270000AD00DE029E02AE009F1070121F0070238
:10528000F2E802C1914609E00FFA8CFC4FEAEC719A
:10529000042A03D14FFA8CFC4FEAEC71002907DA9B
:1052A0000A460021DCF1000C61EB02012D2202E034
:1052B000220504D52B228DF80420012203E0E20709
:1052C00001D02022F7E7904659E00A2102E010229F
:1052D0000DE010214FF0000A00910BE010224FF07A
:1052E000000A44F004040827009203E008224FF06B
:1052F000000A0092C4F30252022A05D059F804CBE6
:105300000021032A08D009E009F1070121F0070272
:10531000F2E802C1914605E01FFA8CFC042A01D193
:105320000CF0FF0C4FF00008220728D5702806D09B
:10533000009B83F0100353EA0A0305D00EE04022DD
:105340008DF80420012208E05CEA010206D0302238
:105350008DF804208DF8050002229046009B83F012
:10536000080353EA0A030AD15CEA010201D1620789
:1053700005D530228DF804204FF001087F1E5828F3
:1053800004D034A003900EA802900DE036A0F9E7F7
:1053900053466046009AFBF7B4FA84460398825C51
:1053A0000298401E029002705CEA0100F0D102985F
:1053B00006A9081A00F1200A600702D524F48034F7
:1053C00000E00127574502DDA7EB0A0000E00020BE
:1053D00000EB0A01009005984144401A0590E00353
:1053E00006D45B462146179A059800F0B3F90544A8
:1053F000002706E001A85A46C05D179990476D1C2A
:105400007F1C4745F6DBE0030CD55B462146179A27
:10541000059800F09FF9054404E030205A4617999A
:1054200090476D1C0099481E00900029F5DC08E0AB
:10543000029802995A460078491C029117999047A0
:105440006D1CBAF10001AAF1010AF1DC65E100006E
:10545000092801003031323334353637383961624A
:10546000636465660000000030313233343536370E
:1054700038394142434445460000000000F058F9E5
:105480000544761C307800287FF4ECAD19B028462E
:10549000BDE8F08F620700D4062709F1070222F069
:1054A000070CFCE80223E14603F000485FEA080C21
:1054B00002D00FF2702C0DE05FEA045C02D50FF20F
:1054C000682C07E05FEAC47C02D00FF2602C01E098
:1054D000AFF2700C4FF0FF3823F00043CDF850C00E
:1054E00065280CD006DC452809D046281DD0472861
:1054F0003DD13DE0662818D067287ED138E00021F4
:10550000112F01DB112000E0781CCDE9000106A974
:105510000EA8FFF701FCDDE90F010E9A03910021AF
:10552000009207F1010A04914DE04FF0004000970E
:10553000CDE9011006A90EA8FFF7EEFBDDE90F0289
:1055400003920E9B11990022DDF80CA000930492A7
:1055500011B9791C00EB010AB7EB0A0004D4C0F1C1
:10556000FF3007F1010A0490AAEB0700019044E024
:10557000012F00DA01270021112F01DD112000E0A9
:105580003846CDE9000106A90EA8FFF7C5FBDDE905
:105590000F010E9A0391002104910092BA4621074F
:1055A0000CD40399514500DA8A46BAF1010F05DDA2
:1055B000009AAAF10101515C302908D0B84202DA00
:1055C00010F1040F06DA0121CDE9011015E0AAF16E
:1055D0000101E9E7002805DC049901440491AAEBE4
:1055E000000102E0411C514500DD8A460499401A41
:1055F000401C01904FF000400290200704D4019815
:10560000504501DBCDF8048000208DF84F00029852
:105610000DF14F07B0F1004F25D02B200E900298CE
:105620004FF0020800280CDA404202902D200E9024
:1056300007E00A210298FBF74EF93031029007F893
:10564000011DB8F10001A8F10108F2DC0298002860
:10565000EFD1791E0E980870307800F0200040F0ED
:10566000450007F8020D12A8C01B00F107081498A6
:10567000007800B1012000EB0A01019801EBE07114
:1056800005984144401A401E0590E00306D45B464D
:105690002146179A059800F05DF8054414980078A3
:1056A00018B15A46179990476D1CE00324D55B4604
:1056B0002146179A059800F04DF805441CE004981F
:1056C000002807DBDDE90301884203DD0098405C28
:1056D000179901E0179930205A469047049805F130
:1056E0000105401C04900198401E019004D12E2019
:1056F0005A46179990476D1CBAF10001AAF1010AA8
:10570000DDDC05E017F8010B5A46179990476D1C30
:10571000B8F10001A8F10108F4DC5B462146179AB4
:105720000598ABE62D0000002B00000020000000D3
:105730002DE9F041044600251E461746880404D48E
:1057400005E039462020B0476D1C641EF9D5284677
:10575000BDE8F0812DE9F041044600251E46904643
:10576000C80301D5302700E02027880404D505E0D0
:1057700041463846B0476D1C641EF9D52846BDE841
:10578000F0810A68531C0B60107070470A68531C44
:105790000B6010707047000086B0FBF765FF4FF498
:1057A000E130FEF771FE4FF4E130FEF7ADFE4FF44D
:1057B000E1514FF4FA70FDF79FFEFCF75BFAFCF73E
:1057C00029FAFBF7C1FDFCF79DFAFBF75BFEFDF73D
:1057D00041F8FDF715F8FBF7F3FFFBF76BFDFDF75D
:1057E000C1F8FCF7F9FDFCF7B1FDFFF70BF9FFF786
:1057F000AFF9FCF74FF9E848007828B91023E7A281
:1058000006210020FCF71CFF0C22E749E748FDF7C2
:105810002BF9E549E6A000F071FEEC48EC49ED4AB1
:10582000ED4BCDE90232CDE90410EC48EC49ED4BEB
:10583000ED4ACDE90010EDA1DB48FAF70FFDE34892
:105840000178E3480078E34A1278E34B1B78CDE90E
:105850000132CDE90301E14800780090E048037887
:10586000E04890F90020E04890F90010E9A000F02D
:1058700045FEEFE372E1C8480078012873D1ED4896
:105880000068ED490968884239D0EA4800688078A4
:1058900010280CD0E74800688078822803D1E748B8
:1058A0000078012803D0E6480078012827D1E14894
:1058B00000688078302809D1DE4800688178E1A04E
:1058C00000F01CFEE9A000F019FE05E0D9480068D0
:1058D0008178E7A000F012FED648006800F03CFE98
:1058E000D448006800F59670D24908600846006800
:1058F000E3490968884202D1E248CE490860E2489B
:105900000068E249096888426FD0E1A000F0F6FD26
:10591000DD480068807820283CD1DB480068407969
:1059200006282FD2DFE800F0030A11182027DBA099
:1059300000F0E4FD0120C14908702AE0DCA000F07D
:10594000DDFD00209449087023E0E4A000F0D6FDBE
:105950000020914908701CE0ECA000F0CFFD002071
:105960008D49087015E0F9E3F2A000F0C7FD0020B2
:10597000894908700DE0FAA000F0C0FD00208649BA
:10598000087006E0FEA000F0B9FD00208249087012
:1059900000BF59E0BC480068807890282ED1BA48F2
:1059A0000068807910B1012820D100E000BFFDA07F
:1059B00000F0A4FD0120A24908700020FC490870F5
:1059C000FDF7DCFCFDF760F9FDF7EAF848F6A041C9
:1059D00042F21070FDF72EFEFDF764FA42F6E06128
:1059E00044F62060FEF7D0F907E03CE0F1A000F0BB
:1059F00085FD00206849087000BF25E0A2480068C6
:105A00008078D02814D1F1A000F078FDE848007823
:105A1000012803D10020E649087015E0E448007829
:105A2000012811DD0020E2490870FDF7A7FC0BE01A
:105A3000954800688078302806D1E8A000F05EFD27
:105A400091480068FCF7D8FA8F48006800F5967016
:105A50008D49086008460068E5490968884202D116
:105A6000E44889490860E4480068E44909688842D4
:105A700074D0E1480168891CE1A000F03FFDE348D3
:105A80000068FAF7A7FB05462A46E0480168DA48AD
:105A90000068801CFAF7B3FB60B90120DC4908708C
:105AA000DCA0DE490860DEA000F028FD0120E0490E
:105AB00008708EE3DF480068FAF78CFB05462A463B
:105AC000DC480168CC480068801CFAF798FB60B994
:105AD0000020CF490870D8A000F010FDDAA0CF490F
